{
  "_format": "hh-sol-artifact-1",
  "contractName": "DegenDwarfs",
  "sourceName": "contracts/DegenDwarfs.sol",
  "abi": [
    {
      "inputs": [
        {
          "internalType": "address",
          "name": "_beneficiary",
          "type": "address"
        },
        {
          "internalType": "string",
          "name": "name",
          "type": "string"
        },
        {
          "internalType": "string",
          "name": "symbol",
          "type": "string"
        },
        {
          "internalType": "string",
          "name": "_tokenURI",
          "type": "string"
        }
      ],
      "stateMutability": "nonpayable",
      "type": "constructor"
    },
    {
      "anonymous": false,
      "inputs": [
        {
          "indexed": true,
          "internalType": "address",
          "name": "owner",
          "type": "address"
        },
        {
          "indexed": true,
          "internalType": "address",
          "name": "approved",
          "type": "address"
        },
        {
          "indexed": true,
          "internalType": "uint256",
          "name": "tokenId",
          "type": "uint256"
        }
      ],
      "name": "Approval",
      "type": "event"
    },
    {
      "anonymous": false,
      "inputs": [
        {
          "indexed": true,
          "internalType": "address",
          "name": "owner",
          "type": "address"
        },
        {
          "indexed": true,
          "internalType": "address",
          "name": "operator",
          "type": "address"
        },
        {
          "indexed": false,
          "internalType": "bool",
          "name": "approved",
          "type": "bool"
        }
      ],
      "name": "ApprovalForAll",
      "type": "event"
    },
    {
      "anonymous": false,
      "inputs": [
        {
          "indexed": true,
          "internalType": "address",
          "name": "previousOwner",
          "type": "address"
        },
        {
          "indexed": true,
          "internalType": "address",
          "name": "newOwner",
          "type": "address"
        }
      ],
      "name": "OwnershipTransferred",
      "type": "event"
    },
    {
      "anonymous": false,
      "inputs": [
        {
          "indexed": false,
          "internalType": "address",
          "name": "account",
          "type": "address"
        }
      ],
      "name": "Paused",
      "type": "event"
    },
    {
      "anonymous": false,
      "inputs": [
        {
          "indexed": true,
          "internalType": "address",
          "name": "from",
          "type": "address"
        },
        {
          "indexed": true,
          "internalType": "address",
          "name": "to",
          "type": "address"
        },
        {
          "indexed": true,
          "internalType": "uint256",
          "name": "tokenId",
          "type": "uint256"
        }
      ],
      "name": "Transfer",
      "type": "event"
    },
    {
      "anonymous": false,
      "inputs": [
        {
          "indexed": false,
          "internalType": "address",
          "name": "account",
          "type": "address"
        }
      ],
      "name": "Unpaused",
      "type": "event"
    },
    {
      "inputs": [
        {
          "internalType": "address",
          "name": "",
          "type": "address"
        }
      ],
      "name": "_discount",
      "outputs": [
        {
          "internalType": "uint256",
          "name": "",
          "type": "uint256"
        }
      ],
      "stateMutability": "view",
      "type": "function"
    },
    {
      "inputs": [],
      "name": "_tokenIds",
      "outputs": [
        {
          "internalType": "uint256",
          "name": "_value",
          "type": "uint256"
        }
      ],
      "stateMutability": "view",
      "type": "function"
    },
    {
      "inputs": [
        {
          "internalType": "address",
          "name": "",
          "type": "address"
        }
      ],
      "name": "_whitelist",
      "outputs": [
        {
          "internalType": "uint256",
          "name": "",
          "type": "uint256"
        }
      ],
      "stateMutability": "view",
      "type": "function"
    },
    {
      "inputs": [
        {
          "internalType": "address[]",
          "name": "discountees",
          "type": "address[]"
        },
        {
          "internalType": "uint256[]",
          "name": "discounted",
          "type": "uint256[]"
        }
      ],
      "name": "addDiscounts",
      "outputs": [],
      "stateMutability": "nonpayable",
      "type": "function"
    },
    {
      "inputs": [
        {
          "internalType": "address[]",
          "name": "whitelist",
          "type": "address[]"
        }
      ],
      "name": "addWhitelist",
      "outputs": [],
      "stateMutability": "nonpayable",
      "type": "function"
    },
    {
      "inputs": [
        {
          "internalType": "address",
          "name": "to",
          "type": "address"
        },
        {
          "internalType": "uint256",
          "name": "tokenId",
          "type": "uint256"
        }
      ],
      "name": "approve",
      "outputs": [],
      "stateMutability": "nonpayable",
      "type": "function"
    },
    {
      "inputs": [
        {
          "internalType": "address",
          "name": "owner",
          "type": "address"
        }
      ],
      "name": "balanceOf",
      "outputs": [
        {
          "internalType": "uint256",
          "name": "",
          "type": "uint256"
        }
      ],
      "stateMutability": "view",
      "type": "function"
    },
    {
      "inputs": [
        {
          "internalType": "uint256",
          "name": "tokenId",
          "type": "uint256"
        }
      ],
      "name": "burn",
      "outputs": [],
      "stateMutability": "nonpayable",
      "type": "function"
    },
    {
      "inputs": [
        {
          "internalType": "uint256",
          "name": "_mintAmount",
          "type": "uint256"
        }
      ],
      "name": "claim",
      "outputs": [],
      "stateMutability": "payable",
      "type": "function"
    },
    {
      "inputs": [],
      "name": "discount",
      "outputs": [],
      "stateMutability": "payable",
      "type": "function"
    },
    {
      "inputs": [
        {
          "internalType": "uint256",
          "name": "tokenId",
          "type": "uint256"
        }
      ],
      "name": "getApproved",
      "outputs": [
        {
          "internalType": "address",
          "name": "",
          "type": "address"
        }
      ],
      "stateMutability": "view",
      "type": "function"
    },
    {
      "inputs": [
        {
          "internalType": "address",
          "name": "owner",
          "type": "address"
        },
        {
          "internalType": "address",
          "name": "operator",
          "type": "address"
        }
      ],
      "name": "isApprovedForAll",
      "outputs": [
        {
          "internalType": "bool",
          "name": "",
          "type": "bool"
        }
      ],
      "stateMutability": "view",
      "type": "function"
    },
    {
      "inputs": [],
      "name": "maxSupply",
      "outputs": [
        {
          "internalType": "uint256",
          "name": "",
          "type": "uint256"
        }
      ],
      "stateMutability": "view",
      "type": "function"
    },
    {
      "inputs": [],
      "name": "mintPrice",
      "outputs": [
        {
          "internalType": "uint256",
          "name": "",
          "type": "uint256"
        }
      ],
      "stateMutability": "view",
      "type": "function"
    },
    {
      "inputs": [],
      "name": "mintStart",
      "outputs": [
        {
          "internalType": "uint256",
          "name": "",
          "type": "uint256"
        }
      ],
      "stateMutability": "view",
      "type": "function"
    },
    {
      "inputs": [],
      "name": "name",
      "outputs": [
        {
          "internalType": "string",
          "name": "",
          "type": "string"
        }
      ],
      "stateMutability": "view",
      "type": "function"
    },
    {
      "inputs": [
        {
          "internalType": "uint256",
          "name": "newPrice",
          "type": "uint256"
        }
      ],
      "name": "overrideMintPrice",
      "outputs": [],
      "stateMutability": "nonpayable",
      "type": "function"
    },
    {
      "inputs": [],
      "name": "owner",
      "outputs": [
        {
          "internalType": "address",
          "name": "",
          "type": "address"
        }
      ],
      "stateMutability": "view",
      "type": "function"
    },
    {
      "inputs": [
        {
          "internalType": "uint256",
          "name": "tokenId",
          "type": "uint256"
        }
      ],
      "name": "ownerOf",
      "outputs": [
        {
          "internalType": "address",
          "name": "",
          "type": "address"
        }
      ],
      "stateMutability": "view",
      "type": "function"
    },
    {
      "inputs": [],
      "name": "pauseMinting",
      "outputs": [],
      "stateMutability": "nonpayable",
      "type": "function"
    },
    {
      "inputs": [],
      "name": "paused",
      "outputs": [
        {
          "internalType": "bool",
          "name": "",
          "type": "bool"
        }
      ],
      "stateMutability": "view",
      "type": "function"
    },
    {
      "inputs": [],
      "name": "renounceOwnership",
      "outputs": [],
      "stateMutability": "nonpayable",
      "type": "function"
    },
    {
      "inputs": [
        {
          "internalType": "address",
          "name": "from",
          "type": "address"
        },
        {
          "internalType": "address",
          "name": "to",
          "type": "address"
        },
        {
          "internalType": "uint256",
          "name": "tokenId",
          "type": "uint256"
        }
      ],
      "name": "safeTransferFrom",
      "outputs": [],
      "stateMutability": "nonpayable",
      "type": "function"
    },
    {
      "inputs": [
        {
          "internalType": "address",
          "name": "from",
          "type": "address"
        },
        {
          "internalType": "address",
          "name": "to",
          "type": "address"
        },
        {
          "internalType": "uint256",
          "name": "tokenId",
          "type": "uint256"
        },
        {
          "internalType": "bytes",
          "name": "_data",
          "type": "bytes"
        }
      ],
      "name": "safeTransferFrom",
      "outputs": [],
      "stateMutability": "nonpayable",
      "type": "function"
    },
    {
      "inputs": [
        {
          "internalType": "address",
          "name": "operator",
          "type": "address"
        },
        {
          "internalType": "bool",
          "name": "approved",
          "type": "bool"
        }
      ],
      "name": "setApprovalForAll",
      "outputs": [],
      "stateMutability": "nonpayable",
      "type": "function"
    },
    {
      "inputs": [
        {
          "internalType": "string",
          "name": "baseURI",
          "type": "string"
        }
      ],
      "name": "setBaseURI",
      "outputs": [],
      "stateMutability": "nonpayable",
      "type": "function"
    },
    {
      "inputs": [
        {
          "internalType": "bytes4",
          "name": "interfaceId",
          "type": "bytes4"
        }
      ],
      "name": "supportsInterface",
      "outputs": [
        {
          "internalType": "bool",
          "name": "",
          "type": "bool"
        }
      ],
      "stateMutability": "view",
      "type": "function"
    },
    {
      "inputs": [],
      "name": "symbol",
      "outputs": [
        {
          "internalType": "string",
          "name": "",
          "type": "string"
        }
      ],
      "stateMutability": "view",
      "type": "function"
    },
    {
      "inputs": [
        {
          "internalType": "uint256",
          "name": "index",
          "type": "uint256"
        }
      ],
      "name": "tokenByIndex",
      "outputs": [
        {
          "internalType": "uint256",
          "name": "",
          "type": "uint256"
        }
      ],
      "stateMutability": "view",
      "type": "function"
    },
    {
      "inputs": [
        {
          "internalType": "address",
          "name": "owner",
          "type": "address"
        },
        {
          "internalType": "uint256",
          "name": "index",
          "type": "uint256"
        }
      ],
      "name": "tokenOfOwnerByIndex",
      "outputs": [
        {
          "internalType": "uint256",
          "name": "",
          "type": "uint256"
        }
      ],
      "stateMutability": "view",
      "type": "function"
    },
    {
      "inputs": [
        {
          "internalType": "uint256",
          "name": "tokenId",
          "type": "uint256"
        }
      ],
      "name": "tokenURI",
      "outputs": [
        {
          "internalType": "string",
          "name": "",
          "type": "string"
        }
      ],
      "stateMutability": "view",
      "type": "function"
    },
    {
      "inputs": [],
      "name": "totalSupply",
      "outputs": [
        {
          "internalType": "uint256",
          "name": "",
          "type": "uint256"
        }
      ],
      "stateMutability": "view",
      "type": "function"
    },
    {
      "inputs": [
        {
          "internalType": "address",
          "name": "from",
          "type": "address"
        },
        {
          "internalType": "address",
          "name": "to",
          "type": "address"
        },
        {
          "internalType": "uint256",
          "name": "tokenId",
          "type": "uint256"
        }
      ],
      "name": "transferFrom",
      "outputs": [],
      "stateMutability": "nonpayable",
      "type": "function"
    },
    {
      "inputs": [
        {
          "internalType": "address",
          "name": "newOwner",
          "type": "address"
        }
      ],
      "name": "transferOwnership",
      "outputs": [],
      "stateMutability": "nonpayable",
      "type": "function"
    },
    {
      "inputs": [],
      "name": "unpauseMinting",
      "outputs": [],
      "stateMutability": "nonpayable",
      "type": "function"
    },
    {
      "inputs": [],
      "name": "whitelistStart",
      "outputs": [
        {
          "internalType": "uint256",
          "name": "",
          "type": "uint256"
        }
      ],
      "stateMutability": "view",
      "type": "function"
    },
    {
      "inputs": [],
      "name": "withdraw",
      "outputs": [],
      "stateMutability": "nonpayable",
      "type": "function"
    }
  ],
  "bytecode": "0x60c0604052611b39608090815250636216cc8b600f55636218564b60105566f52322698080006011553480156200003557600080fd5b506040516200566d3803806200566d83398181016040528101906200005b919062000341565b8282816000908051906020019062000075929190620001fc565b5080600190805190602001906200008e929190620001fc565b505050620000b1620000a56200012e60201b60201c565b6200013660201b60201c565b6000600660146101000a81548160ff0219169083151502179055506001600b819055508373ffffffffffffffffffffffffffffffffffffffff1660a08173ffffffffffffffffffffffffffffffffffffffff1660601b81525050806012908051906020019062000123929190620001fc565b5050505050620005e2565b600033905090565b6000600660009054906101000a900473ffffffffffffffffffffffffffffffffffffffff16905081600660006101000a81548173ffffffffffffffffffffffffffffffffffffffff021916908373ffffffffffffffffffffffffffffffffffffffff1602179055508173ffffffffffffffffffffffffffffffffffffffff168173ffffffffffffffffffffffffffffffffffffffff167f8be0079c531659141344cd1fd0a4f28419497f9722a3daafe3b4186f6b6457e060405160405180910390a35050565b8280546200020a90620004d9565b90600052602060002090601f0160209004810192826200022e57600085556200027a565b82601f106200024957805160ff19168380011785556200027a565b828001600101855582156200027a579182015b82811115620002795782518255916020019190600101906200025c565b5b5090506200028991906200028d565b5090565b5b80821115620002a85760008160009055506001016200028e565b5090565b6000620002c3620002bd8462000439565b62000410565b905082815260208101848484011115620002e257620002e1620005a8565b5b620002ef848285620004a3565b509392505050565b6000815190506200030881620005c8565b92915050565b600082601f830112620003265762000325620005a3565b5b815162000338848260208601620002ac565b91505092915050565b600080600080608085870312156200035e576200035d620005b2565b5b60006200036e87828801620002f7565b945050602085015167ffffffffffffffff811115620003925762000391620005ad565b5b620003a0878288016200030e565b935050604085015167ffffffffffffffff811115620003c457620003c3620005ad565b5b620003d2878288016200030e565b925050606085015167ffffffffffffffff811115620003f657620003f5620005ad565b5b62000404878288016200030e565b91505092959194509250565b60006200041c6200042f565b90506200042a82826200050f565b919050565b6000604051905090565b600067ffffffffffffffff82111562000457576200045662000574565b5b6200046282620005b7565b9050602081019050919050565b60006200047c8262000483565b9050919050565b600073ffffffffffffffffffffffffffffffffffffffff82169050919050565b60005b83811015620004c3578082015181840152602081019050620004a6565b83811115620004d3576000848401525b50505050565b60006002820490506001821680620004f257607f821691505b6020821081141562000509576200050862000545565b5b50919050565b6200051a82620005b7565b810181811067ffffffffffffffff821117156200053c576200053b62000574565b5b80604052505050565b7f4e487b7100000000000000000000000000000000000000000000000000000000600052602260045260246000fd5b7f4e487b7100000000000000000000000000000000000000000000000000000000600052604160045260246000fd5b600080fd5b600080fd5b600080fd5b600080fd5b6000601f19601f8301169050919050565b620005d3816200046f565b8114620005df57600080fd5b50565b60805160a05160601c615054620006196000396000611163015260008181610e4d015281816116560152611ab101526150546000f3fe60806040526004361061021a5760003560e01c80636b6f4a9d11610123578063ae200322116100ab578063d92559ad1161006f578063d92559ad146107a5578063da8fbf2a146107ce578063e985e9c5146107e5578063edac985b14610822578063f2fde38b1461084b5761021a565b8063ae200322146106c0578063b88d4fde146106d7578063c87b56dd14610700578063cfdb63ac1461073d578063d5abeb011461077a5761021a565b806395d89b41116100f257806395d89b41146105d9578063994d396914610604578063a22cb4651461062f578063aa46a40014610658578063aaf1fce0146106835761021a565b80636b6f4a9d1461055057806370a082311461055a578063715018a6146105975780638da5cb5b146105ae5761021a565b8063379607f5116101a65780634f6ccce7116101755780634f6ccce71461045757806355f804b3146104945780635c975abb146104bd5780636352211e146104e85780636817c76c146105255761021a565b8063379607f5146103d25780633ccfd60b146103ee57806342842e0e1461040557806342966c681461042e5761021a565b806318160ddd116101ed57806318160ddd146102ed57806323b872dd14610318578063255e4685146103415780632f1cc6ac1461036c5780632f745c59146103955761021a565b806301ffc9a71461021f57806306fdde031461025c578063081812fc14610287578063095ea7b3146102c4575b600080fd5b34801561022b57600080fd5b506102466004803603810190610241919061395e565b610874565b6040516102539190613f8b565b60405180910390f35b34801561026857600080fd5b50610271610956565b60405161027e9190613fa6565b60405180910390f35b34801561029357600080fd5b506102ae60048036038101906102a99190613a01565b6109e8565b6040516102bb9190613f24565b60405180910390f35b3480156102d057600080fd5b506102eb60048036038101906102e6919061385d565b610a6d565b005b3480156102f957600080fd5b50610302610b85565b60405161030f9190614348565b60405180910390f35b34801561032457600080fd5b5061033f600480360381019061033a9190613747565b610b92565b005b34801561034d57600080fd5b50610356610bf2565b6040516103639190614348565b60405180910390f35b34801561037857600080fd5b50610393600480360381019061038e91906138e6565b610bf8565b005b3480156103a157600080fd5b506103bc60048036038101906103b7919061385d565b610d10565b6040516103c99190614348565b60405180910390f35b6103ec60048036038101906103e79190613a01565b610db5565b005b3480156103fa57600080fd5b506104036111e0565b005b34801561041157600080fd5b5061042c60048036038101906104279190613747565b6112ac565b005b34801561043a57600080fd5b5061045560048036038101906104509190613a01565b6112cc565b005b34801561046357600080fd5b5061047e60048036038101906104799190613a01565b611328565b60405161048b9190614348565b60405180910390f35b3480156104a057600080fd5b506104bb60048036038101906104b691906139b8565b611399565b005b3480156104c957600080fd5b506104d261142f565b6040516104df9190613f8b565b60405180910390f35b3480156104f457600080fd5b5061050f600480360381019061050a9190613a01565b611446565b60405161051c9190613f24565b60405180910390f35b34801561053157600080fd5b5061053a6114f8565b6040516105479190614348565b60405180910390f35b6105586114fe565b005b34801561056657600080fd5b50610581600480360381019061057c91906136da565b611739565b60405161058e9190614348565b60405180910390f35b3480156105a357600080fd5b506105ac6117f1565b005b3480156105ba57600080fd5b506105c3611879565b6040516105d09190613f24565b60405180910390f35b3480156105e557600080fd5b506105ee6118a3565b6040516105fb9190613fa6565b60405180910390f35b34801561061057600080fd5b50610619611935565b6040516106269190614348565b60405180910390f35b34801561063b57600080fd5b506106566004803603810190610651919061381d565b61193b565b005b34801561066457600080fd5b5061066d611951565b60405161067a9190614348565b60405180910390f35b34801561068f57600080fd5b506106aa60048036038101906106a591906136da565b61195d565b6040516106b79190614348565b60405180910390f35b3480156106cc57600080fd5b506106d5611975565b005b3480156106e357600080fd5b506106fe60048036038101906106f9919061379a565b6119fb565b005b34801561070c57600080fd5b5061072760048036038101906107229190613a01565b611a5d565b6040516107349190613fa6565b60405180910390f35b34801561074957600080fd5b50610764600480360381019061075f91906136da565b611a97565b6040516107719190614348565b60405180910390f35b34801561078657600080fd5b5061078f611aaf565b60405161079c9190614348565b60405180910390f35b3480156107b157600080fd5b506107cc60048036038101906107c79190613a01565b611ad3565b005b3480156107da57600080fd5b506107e3611b59565b005b3480156107f157600080fd5b5061080c60048036038101906108079190613707565b611bdf565b6040516108199190613f8b565b60405180910390f35b34801561082e57600080fd5b506108496004803603810190610844919061389d565b611c73565b005b34801561085757600080fd5b50610872600480360381019061086d91906136da565b611d71565b005b60007f80ac58cd000000000000000000000000000000000000000000000000000000007bffffffffffffffffffffffffffffffffffffffffffffffffffffffff1916827bffffffffffffffffffffffffffffffffffffffffffffffffffffffff1916148061093f57507f5b5e139f000000000000000000000000000000000000000000000000000000007bffffffffffffffffffffffffffffffffffffffffffffffffffffffff1916827bffffffffffffffffffffffffffffffffffffffffffffffffffffffff1916145b8061094f575061094e82611e69565b5b9050919050565b60606000805461096590614650565b80601f016020809104026020016040519081016040528092919081815260200182805461099190614650565b80156109de5780601f106109b3576101008083540402835291602001916109de565b820191906000526020600020905b8154815290600101906020018083116109c157829003601f168201915b5050505050905090565b60006109f382611ee3565b610a32576040517f08c379a0000000000000000000000000000000000000000000000000000000008152600401610a29906141c8565b60405180910390fd5b6004600083815260200190815260200160002060009054906101000a900473ffffffffffffffffffffffffffffffffffffffff169050919050565b6000610a7882611446565b90508073ffffffffffffffffffffffffffffffffffffffff168373ffffffffffffffffffffffffffffffffffffffff161415610ae9576040517f08c379a0000000000000000000000000000000000000000000000000000000008152600401610ae090614268565b60405180910390fd5b8073ffffffffffffffffffffffffffffffffffffffff16610b08611f4f565b73ffffffffffffffffffffffffffffffffffffffff161480610b375750610b3681610b31611f4f565b611bdf565b5b610b76576040517f08c379a0000000000000000000000000000000000000000000000000000000008152600401610b6d90614148565b60405180910390fd5b610b808383611f57565b505050565b6000600980549050905090565b610ba3610b9d611f4f565b82612010565b610be2576040517f08c379a0000000000000000000000000000000000000000000000000000000008152600401610bd9906142a8565b60405180910390fd5b610bed8383836120ee565b505050565b60105481565b610c00611f4f565b73ffffffffffffffffffffffffffffffffffffffff16610c1e611879565b73ffffffffffffffffffffffffffffffffffffffff1614610c74576040517f08c379a0000000000000000000000000000000000000000000000000000000008152600401610c6b906141e8565b60405180910390fd5b60005b8251811015610d0b57818181518110610c9357610c926147e9565b5b6020026020010151600d6000858481518110610cb257610cb16147e9565b5b602002602001015173ffffffffffffffffffffffffffffffffffffffff1673ffffffffffffffffffffffffffffffffffffffff168152602001908152602001600020819055508080610d03906146b3565b915050610c77565b505050565b6000610d1b83611739565b8210610d5c576040517f08c379a0000000000000000000000000000000000000000000000000000000008152600401610d5390614008565b60405180910390fd5b600760008473ffffffffffffffffffffffffffffffffffffffff1673ffffffffffffffffffffffffffffffffffffffff168152602001908152602001600020600083815260200190815260200160002054905092915050565b610dbd61142f565b15610dfd576040517f08c379a0000000000000000000000000000000000000000000000000000000008152600401610df490614128565b60405180910390fd5b6002600b541415610e43576040517f08c379a0000000000000000000000000000000000000000000000000000000008152600401610e3a90614308565b60405180910390fd5b6002600b819055507f0000000000000000000000000000000000000000000000000000000000000000610e76600c61234a565b1115610eb7576040517f08c379a0000000000000000000000000000000000000000000000000000000008152600401610eae90614228565b60405180910390fd5b6001811015610efb576040517f08c379a0000000000000000000000000000000000000000000000000000000008152600401610ef290614088565b60405180910390fd5b80601154610f09919061450c565b3414610f4a576040517f08c379a0000000000000000000000000000000000000000000000000000000008152600401610f41906142e8565b60405180910390fd5b42600f54108015610f5c575042601054115b156110905780600e6000610f6e611f4f565b73ffffffffffffffffffffffffffffffffffffffff1673ffffffffffffffffffffffffffffffffffffffff168152602001908152602001600020541015610fea576040517f08c379a0000000000000000000000000000000000000000000000000000000008152600401610fe1906140a8565b60405180910390fd5b600281111561102e576040517f08c379a000000000000000000000000000000000000000000000000000000000815260040161102590613fe8565b60405180910390fd5b80600e600061103b611f4f565b73ffffffffffffffffffffffffffffffffffffffff1673ffffffffffffffffffffffffffffffffffffffff16815260200190815260200160002060008282546110849190614566565b9250508190555061111e565b4260105410156110e257600b81106110dd576040517f08c379a00000000000000000000000000000000000000000000000000000000081526004016110d490614288565b60405180910390fd5b61111d565b6040517f08c379a000000000000000000000000000000000000000000000000000000000815260040161111490614248565b60405180910390fd5b5b60005b8181101561116057611133600c612358565b61114d61113e611f4f565b611148600c61234a565b61236e565b8080611158906146b3565b915050611121565b507f000000000000000000000000000000000000000000000000000000000000000073ffffffffffffffffffffffffffffffffffffffff166108fc826011546111a9919061450c565b9081150290604051600060405180830381858888f193505050501580156111d4573d6000803e3d6000fd5b506001600b8190555050565b6111e8611f4f565b73ffffffffffffffffffffffffffffffffffffffff16611206611879565b73ffffffffffffffffffffffffffffffffffffffff161461125c576040517f08c379a0000000000000000000000000000000000000000000000000000000008152600401611253906141e8565b60405180910390fd5b611264611f4f565b73ffffffffffffffffffffffffffffffffffffffff166108fc479081150290604051600060405180830381858888f193505050501580156112a9573d6000803e3d6000fd5b50565b6112c7838383604051806020016040528060008152506119fb565b505050565b6112dd6112d7611f4f565b82612010565b61131c576040517f08c379a000000000000000000000000000000000000000000000000000000000815260040161131390614328565b60405180910390fd5b6113258161238c565b50565b6000611332610b85565b8210611373576040517f08c379a000000000000000000000000000000000000000000000000000000000815260040161136a906142c8565b60405180910390fd5b60098281548110611387576113866147e9565b5b90600052602060002001549050919050565b6113a1611f4f565b73ffffffffffffffffffffffffffffffffffffffff166113bf611879565b73ffffffffffffffffffffffffffffffffffffffff1614611415576040517f08c379a000000000000000000000000000000000000000000000000000000000815260040161140c906141e8565b60405180910390fd5b806012908051906020019061142b9291906133b2565b5050565b6000600660149054906101000a900460ff16905090565b6000806002600084815260200190815260200160002060009054906101000a900473ffffffffffffffffffffffffffffffffffffffff169050600073ffffffffffffffffffffffffffffffffffffffff168173ffffffffffffffffffffffffffffffffffffffff1614156114ef576040517f08c379a00000000000000000000000000000000000000000000000000000000081526004016114e690614188565b60405180910390fd5b80915050919050565b60115481565b61150661142f565b15611546576040517f08c379a000000000000000000000000000000000000000000000000000000000815260040161153d90614128565b60405180910390fd5b6002600b54141561158c576040517f08c379a000000000000000000000000000000000000000000000000000000000815260040161158390614308565b60405180910390fd5b6002600b819055506000670de0b6b3a7640000600d60006115ab611f4f565b73ffffffffffffffffffffffffffffffffffffffff1673ffffffffffffffffffffffffffffffffffffffff16815260200190815260200160002054670de0b6b3a76400006115f99190614566565b601154611606919061450c565b61161091906144db565b9050803414611654576040517f08c379a000000000000000000000000000000000000000000000000000000000815260040161164b906142e8565b60405180910390fd5b7f000000000000000000000000000000000000000000000000000000000000000061167f600c61234a565b11156116c0576040517f08c379a00000000000000000000000000000000000000000000000000000000081526004016116b790614228565b60405180910390fd5b6116ca600c612358565b6116e46116d5611f4f565b6116df600c61234a565b61236e565b600d60006116f0611f4f565b73ffffffffffffffffffffffffffffffffffffffff1673ffffffffffffffffffffffffffffffffffffffff16815260200190815260200160002060009055506001600b81905550565b60008073ffffffffffffffffffffffffffffffffffffffff168273ffffffffffffffffffffffffffffffffffffffff1614156117aa576040517f08c379a00000000000000000000000000000000000000000000000000000000081526004016117a190614168565b60405180910390fd5b600360008373ffffffffffffffffffffffffffffffffffffffff1673ffffffffffffffffffffffffffffffffffffffff168152602001908152602001600020549050919050565b6117f9611f4f565b73ffffffffffffffffffffffffffffffffffffffff16611817611879565b73ffffffffffffffffffffffffffffffffffffffff161461186d576040517f08c379a0000000000000000000000000000000000000000000000000000000008152600401611864906141e8565b60405180910390fd5b611877600061249d565b565b6000600660009054906101000a900473ffffffffffffffffffffffffffffffffffffffff16905090565b6060600180546118b290614650565b80601f01602080910402602001604051908101604052809291908181526020018280546118de90614650565b801561192b5780601f106119005761010080835404028352916020019161192b565b820191906000526020600020905b81548152906001019060200180831161190e57829003601f168201915b5050505050905090565b600f5481565b61194d611946611f4f565b8383612563565b5050565b600c8060000154905081565b600d6020528060005260406000206000915090505481565b61197d611f4f565b73ffffffffffffffffffffffffffffffffffffffff1661199b611879565b73ffffffffffffffffffffffffffffffffffffffff16146119f1576040517f08c379a00000000000000000000000000000000000000000000000000000000081526004016119e8906141e8565b60405180910390fd5b6119f96126d0565b565b611a0c611a06611f4f565b83612010565b611a4b576040517f08c379a0000000000000000000000000000000000000000000000000000000008152600401611a42906142a8565b60405180910390fd5b611a5784848484612772565b50505050565b6060611a676127ce565b611a7083612860565b604051602001611a81929190613ef5565b6040516020818303038152906040529050919050565b600e6020528060005260406000206000915090505481565b7f000000000000000000000000000000000000000000000000000000000000000081565b611adb611f4f565b73ffffffffffffffffffffffffffffffffffffffff16611af9611879565b73ffffffffffffffffffffffffffffffffffffffff1614611b4f576040517f08c379a0000000000000000000000000000000000000000000000000000000008152600401611b46906141e8565b60405180910390fd5b8060118190555050565b611b61611f4f565b73ffffffffffffffffffffffffffffffffffffffff16611b7f611879565b73ffffffffffffffffffffffffffffffffffffffff1614611bd5576040517f08c379a0000000000000000000000000000000000000000000000000000000008152600401611bcc906141e8565b60405180910390fd5b611bdd6129c1565b565b6000600560008473ffffffffffffffffffffffffffffffffffffffff1673ffffffffffffffffffffffffffffffffffffffff16815260200190815260200160002060008373ffffffffffffffffffffffffffffffffffffffff1673ffffffffffffffffffffffffffffffffffffffff16815260200190815260200160002060009054906101000a900460ff16905092915050565b611c7b611f4f565b73ffffffffffffffffffffffffffffffffffffffff16611c99611879565b73ffffffffffffffffffffffffffffffffffffffff1614611cef576040517f08c379a0000000000000000000000000000000000000000000000000000000008152600401611ce6906141e8565b60405180910390fd5b60005b8151811015611d6d576002600e6000848481518110611d1457611d136147e9565b5b602002602001015173ffffffffffffffffffffffffffffffffffffffff1673ffffffffffffffffffffffffffffffffffffffff168152602001908152602001600020819055508080611d65906146b3565b915050611cf2565b5050565b611d79611f4f565b73ffffffffffffffffffffffffffffffffffffffff16611d97611879565b73ffffffffffffffffffffffffffffffffffffffff1614611ded576040517f08c379a0000000000000000000000000000000000000000000000000000000008152600401611de4906141e8565b60405180910390fd5b600073ffffffffffffffffffffffffffffffffffffffff168173ffffffffffffffffffffffffffffffffffffffff161415611e5d576040517f08c379a0000000000000000000000000000000000000000000000000000000008152600401611e5490614048565b60405180910390fd5b611e668161249d565b50565b60007f780e9d63000000000000000000000000000000000000000000000000000000007bffffffffffffffffffffffffffffffffffffffffffffffffffffffff1916827bffffffffffffffffffffffffffffffffffffffffffffffffffffffff19161480611edc5750611edb82612a64565b5b9050919050565b60008073ffffffffffffffffffffffffffffffffffffffff166002600084815260200190815260200160002060009054906101000a900473ffffffffffffffffffffffffffffffffffffffff1673ffffffffffffffffffffffffffffffffffffffff1614159050919050565b600033905090565b816004600083815260200190815260200160002060006101000a81548173ffffffffffffffffffffffffffffffffffffffff021916908373ffffffffffffffffffffffffffffffffffffffff160217905550808273ffffffffffffffffffffffffffffffffffffffff16611fca83611446565b73ffffffffffffffffffffffffffffffffffffffff167f8c5be1e5ebec7d5bd14f71427d1e84f3dd0314c0f7b2291e5b200ac8c7c3b92560405160405180910390a45050565b600061201b82611ee3565b61205a576040517f08c379a000000000000000000000000000000000000000000000000000000000815260040161205190614108565b60405180910390fd5b600061206583611446565b90508073ffffffffffffffffffffffffffffffffffffffff168473ffffffffffffffffffffffffffffffffffffffff1614806120d457508373ffffffffffffffffffffffffffffffffffffffff166120bc846109e8565b73ffffffffffffffffffffffffffffffffffffffff16145b806120e557506120e48185611bdf565b5b91505092915050565b8273ffffffffffffffffffffffffffffffffffffffff1661210e82611446565b73ffffffffffffffffffffffffffffffffffffffff1614612164576040517f08c379a000000000000000000000000000000000000000000000000000000000815260040161215b90614208565b60405180910390fd5b600073ffffffffffffffffffffffffffffffffffffffff168273ffffffffffffffffffffffffffffffffffffffff1614156121d4576040517f08c379a00000000000000000000000000000000000000000000000000000000081526004016121cb906140c8565b60405180910390fd5b6121df838383612b46565b6121ea600082611f57565b6001600360008573ffffffffffffffffffffffffffffffffffffffff1673ffffffffffffffffffffffffffffffffffffffff168152602001908152602001600020600082825461223a9190614566565b925050819055506001600360008473ffffffffffffffffffffffffffffffffffffffff1673ffffffffffffffffffffffffffffffffffffffff16815260200190815260200160002060008282546122919190614485565b92505081905550816002600083815260200190815260200160002060006101000a81548173ffffffffffffffffffffffffffffffffffffffff021916908373ffffffffffffffffffffffffffffffffffffffff160217905550808273ffffffffffffffffffffffffffffffffffffffff168473ffffffffffffffffffffffffffffffffffffffff167fddf252ad1be2c89b69c2b068fc378daa952ba7f163c4a11628f55a4df523b3ef60405160405180910390a4505050565b600081600001549050919050565b6001816000016000828254019250508190555050565b612388828260405180602001604052806000815250612b56565b5050565b600061239782611446565b90506123a581600084612b46565b6123b0600083611f57565b6001600360008373ffffffffffffffffffffffffffffffffffffffff1673ffffffffffffffffffffffffffffffffffffffff16815260200190815260200160002060008282546124009190614566565b925050819055506002600083815260200190815260200160002060006101000a81549073ffffffffffffffffffffffffffffffffffffffff021916905581600073ffffffffffffffffffffffffffffffffffffffff168273ffffffffffffffffffffffffffffffffffffffff167fddf252ad1be2c89b69c2b068fc378daa952ba7f163c4a11628f55a4df523b3ef60405160405180910390a45050565b6000600660009054906101000a900473ffffffffffffffffffffffffffffffffffffffff16905081600660006101000a81548173ffffffffffffffffffffffffffffffffffffffff021916908373ffffffffffffffffffffffffffffffffffffffff1602179055508173ffffffffffffffffffffffffffffffffffffffff168173ffffffffffffffffffffffffffffffffffffffff167f8be0079c531659141344cd1fd0a4f28419497f9722a3daafe3b4186f6b6457e060405160405180910390a35050565b8173ffffffffffffffffffffffffffffffffffffffff168373ffffffffffffffffffffffffffffffffffffffff1614156125d2576040517f08c379a00000000000000000000000000000000000000000000000000000000081526004016125c9906140e8565b60405180910390fd5b80600560008573ffffffffffffffffffffffffffffffffffffffff1673ffffffffffffffffffffffffffffffffffffffff16815260200190815260200160002060008473ffffffffffffffffffffffffffffffffffffffff1673ffffffffffffffffffffffffffffffffffffffff16815260200190815260200160002060006101000a81548160ff0219169083151502179055508173ffffffffffffffffffffffffffffffffffffffff168373ffffffffffffffffffffffffffffffffffffffff167f17307eab39ab6107e8899845ad3d59bd9653f200f220920489ca2b5937696c31836040516126c39190613f8b565b60405180910390a3505050565b6126d861142f565b612717576040517f08c379a000000000000000000000000000000000000000000000000000000000815260040161270e90613fc8565b60405180910390fd5b6000600660146101000a81548160ff0219169083151502179055507f5db9ee0a495bf2e6ff9c91a7834c1ba4fdd244a5e8aa4e537bd38aeae4b073aa61275b611f4f565b6040516127689190613f24565b60405180910390a1565b61277d8484846120ee565b61278984848484612bb1565b6127c8576040517f08c379a00000000000000000000000000000000000000000000000000000000081526004016127bf90614028565b60405180910390fd5b50505050565b6060601280546127dd90614650565b80601f016020809104026020016040519081016040528092919081815260200182805461280990614650565b80156128565780601f1061282b57610100808354040283529160200191612856565b820191906000526020600020905b81548152906001019060200180831161283957829003601f168201915b5050505050905090565b606060008214156128a8576040518060400160405280600181526020017f300000000000000000000000000000000000000000000000000000000000000081525090506129bc565b600082905060005b600082146128da5780806128c3906146b3565b915050600a826128d391906144db565b91506128b0565b60008167ffffffffffffffff8111156128f6576128f5614818565b5b6040519080825280601f01601f1916602001820160405280156129285781602001600182028036833780820191505090505b5090505b600085146129b5576001826129419190614566565b9150600a8561295091906146fc565b603061295c9190614485565b60f81b818381518110612972576129716147e9565b5b60200101907effffffffffffffffffffffffffffffffffffffffffffffffffffffffffffff1916908160001a905350600a856129ae91906144db565b945061292c565b8093505050505b919050565b6129c961142f565b15612a09576040517f08c379a0000000000000000000000000000000000000000000000000000000008152600401612a0090614128565b60405180910390fd5b6001600660146101000a81548160ff0219169083151502179055507f62e78cea01bee320cd4e420270b5ea74000d11b0c9f74754ebdbfc544b05a258612a4d611f4f565b604051612a5a9190613f24565b60405180910390a1565b60007f80ac58cd000000000000000000000000000000000000000000000000000000007bffffffffffffffffffffffffffffffffffffffffffffffffffffffff1916827bffffffffffffffffffffffffffffffffffffffffffffffffffffffff19161480612b2f57507f5b5e139f000000000000000000000000000000000000000000000000000000007bffffffffffffffffffffffffffffffffffffffffffffffffffffffff1916827bffffffffffffffffffffffffffffffffffffffffffffffffffffffff1916145b80612b3f5750612b3e82612d48565b5b9050919050565b612b51838383612db2565b505050565b612b608383612ec6565b612b6d6000848484612bb1565b612bac576040517f08c379a0000000000000000000000000000000000000000000000000000000008152600401612ba390614028565b60405180910390fd5b505050565b6000612bd28473ffffffffffffffffffffffffffffffffffffffff16613094565b15612d3b578373ffffffffffffffffffffffffffffffffffffffff1663150b7a02612bfb611f4f565b8786866040518563ffffffff1660e01b8152600401612c1d9493929190613f3f565b602060405180830381600087803b158015612c3757600080fd5b505af1925050508015612c6857506040513d601f19601f82011682018060405250810190612c65919061398b565b60015b612ceb573d8060008114612c98576040519150601f19603f3d011682016040523d82523d6000602084013e612c9d565b606091505b50600081511415612ce3576040517f08c379a0000000000000000000000000000000000000000000000000000000008152600401612cda90614028565b60405180910390fd5b805181602001fd5b63150b7a0260e01b7bffffffffffffffffffffffffffffffffffffffffffffffffffffffff1916817bffffffffffffffffffffffffffffffffffffffffffffffffffffffff191614915050612d40565b600190505b949350505050565b60007f01ffc9a7000000000000000000000000000000000000000000000000000000007bffffffffffffffffffffffffffffffffffffffffffffffffffffffff1916827bffffffffffffffffffffffffffffffffffffffffffffffffffffffff1916149050919050565b612dbd8383836130a7565b600073ffffffffffffffffffffffffffffffffffffffff168373ffffffffffffffffffffffffffffffffffffffff161415612e0057612dfb816130ac565b612e3f565b8173ffffffffffffffffffffffffffffffffffffffff168373ffffffffffffffffffffffffffffffffffffffff1614612e3e57612e3d83826130f5565b5b5b600073ffffffffffffffffffffffffffffffffffffffff168273ffffffffffffffffffffffffffffffffffffffff161415612e8257612e7d81613262565b612ec1565b8273ffffffffffffffffffffffffffffffffffffffff168273ffffffffffffffffffffffffffffffffffffffff1614612ec057612ebf8282613333565b5b5b505050565b600073ffffffffffffffffffffffffffffffffffffffff168273ffffffffffffffffffffffffffffffffffffffff161415612f36576040517f08c379a0000000000000000000000000000000000000000000000000000000008152600401612f2d906141a8565b60405180910390fd5b612f3f81611ee3565b15612f7f576040517f08c379a0000000000000000000000000000000000000000000000000000000008152600401612f7690614068565b60405180910390fd5b612f8b60008383612b46565b6001600360008473ffffffffffffffffffffffffffffffffffffffff1673ffffffffffffffffffffffffffffffffffffffff1681526020019081526020016000206000828254612fdb9190614485565b92505081905550816002600083815260200190815260200160002060006101000a81548173ffffffffffffffffffffffffffffffffffffffff021916908373ffffffffffffffffffffffffffffffffffffffff160217905550808273ffffffffffffffffffffffffffffffffffffffff16600073ffffffffffffffffffffffffffffffffffffffff167fddf252ad1be2c89b69c2b068fc378daa952ba7f163c4a11628f55a4df523b3ef60405160405180910390a45050565b600080823b905060008111915050919050565b505050565b600980549050600a600083815260200190815260200160002081905550600981908060018154018082558091505060019003906000526020600020016000909190919091505550565b6000600161310284611739565b61310c9190614566565b90506000600860008481526020019081526020016000205490508181146131f1576000600760008673ffffffffffffffffffffffffffffffffffffffff1673ffffffffffffffffffffffffffffffffffffffff168152602001908152602001600020600084815260200190815260200160002054905080600760008773ffffffffffffffffffffffffffffffffffffffff1673ffffffffffffffffffffffffffffffffffffffff168152602001908152602001600020600084815260200190815260200160002081905550816008600083815260200190815260200160002081905550505b6008600084815260200190815260200160002060009055600760008573ffffffffffffffffffffffffffffffffffffffff1673ffffffffffffffffffffffffffffffffffffffff16815260200190815260200160002060008381526020019081526020016000206000905550505050565b600060016009805490506132769190614566565b90506000600a60008481526020019081526020016000205490506000600983815481106132a6576132a56147e9565b5b9060005260206000200154905080600983815481106132c8576132c76147e9565b5b906000526020600020018190555081600a600083815260200190815260200160002081905550600a6000858152602001908152602001600020600090556009805480613317576133166147ba565b5b6001900381819060005260206000200160009055905550505050565b600061333e83611739565b905081600760008573ffffffffffffffffffffffffffffffffffffffff1673ffffffffffffffffffffffffffffffffffffffff168152602001908152602001600020600083815260200190815260200160002081905550806008600084815260200190815260200160002081905550505050565b8280546133be90614650565b90600052602060002090601f0160209004810192826133e05760008555613427565b82601f106133f957805160ff1916838001178555613427565b82800160010185558215613427579182015b8281111561342657825182559160200191906001019061340b565b5b5090506134349190613438565b5090565b5b80821115613451576000816000905550600101613439565b5090565b600061346861346384614388565b614363565b9050808382526020820190508285602086028201111561348b5761348a61484c565b5b60005b858110156134bb57816134a188826135b9565b84526020840193506020830192505060018101905061348e565b5050509392505050565b60006134d86134d3846143b4565b614363565b905080838252602082019050828560208602820111156134fb576134fa61484c565b5b60005b8581101561352b578161351188826136c5565b8452602084019350602083019250506001810190506134fe565b5050509392505050565b6000613548613543846143e0565b614363565b90508281526020810184848401111561356457613563614851565b5b61356f84828561460e565b509392505050565b600061358a61358584614411565b614363565b9050828152602081018484840111156135a6576135a5614851565b5b6135b184828561460e565b509392505050565b6000813590506135c881614fc2565b92915050565b600082601f8301126135e3576135e2614847565b5b81356135f3848260208601613455565b91505092915050565b600082601f83011261361157613610614847565b5b81356136218482602086016134c5565b91505092915050565b60008135905061363981614fd9565b92915050565b60008135905061364e81614ff0565b92915050565b60008151905061366381614ff0565b92915050565b600082601f83011261367e5761367d614847565b5b813561368e848260208601613535565b91505092915050565b600082601f8301126136ac576136ab614847565b5b81356136bc848260208601613577565b91505092915050565b6000813590506136d481615007565b92915050565b6000602082840312156136f0576136ef61485b565b5b60006136fe848285016135b9565b91505092915050565b6000806040838503121561371e5761371d61485b565b5b600061372c858286016135b9565b925050602061373d858286016135b9565b9150509250929050565b6000806000606084860312156137605761375f61485b565b5b600061376e868287016135b9565b935050602061377f868287016135b9565b9250506040613790868287016136c5565b9150509250925092565b600080600080608085870312156137b4576137b361485b565b5b60006137c2878288016135b9565b94505060206137d3878288016135b9565b93505060406137e4878288016136c5565b925050606085013567ffffffffffffffff81111561380557613804614856565b5b61381187828801613669565b91505092959194509250565b600080604083850312156138345761383361485b565b5b6000613842858286016135b9565b92505060206138538582860161362a565b9150509250929050565b600080604083850312156138745761387361485b565b5b6000613882858286016135b9565b9250506020613893858286016136c5565b9150509250929050565b6000602082840312156138b3576138b261485b565b5b600082013567ffffffffffffffff8111156138d1576138d0614856565b5b6138dd848285016135ce565b91505092915050565b600080604083850312156138fd576138fc61485b565b5b600083013567ffffffffffffffff81111561391b5761391a614856565b5b613927858286016135ce565b925050602083013567ffffffffffffffff81111561394857613947614856565b5b613954858286016135fc565b9150509250929050565b6000602082840312156139745761397361485b565b5b60006139828482850161363f565b91505092915050565b6000602082840312156139a1576139a061485b565b5b60006139af84828501613654565b91505092915050565b6000602082840312156139ce576139cd61485b565b5b600082013567ffffffffffffffff8111156139ec576139eb614856565b5b6139f884828501613697565b91505092915050565b600060208284031215613a1757613a1661485b565b5b6000613a25848285016136c5565b91505092915050565b613a378161459a565b82525050565b613a46816145ac565b82525050565b6000613a5782614442565b613a618185614458565b9350613a7181856020860161461d565b613a7a81614860565b840191505092915050565b6000613a908261444d565b613a9a8185614469565b9350613aaa81856020860161461d565b613ab381614860565b840191505092915050565b6000613ac98261444d565b613ad3818561447a565b9350613ae381856020860161461d565b80840191505092915050565b6000613afc601483614469565b9150613b0782614871565b602082019050919050565b6000613b1f603283614469565b9150613b2a8261489a565b604082019050919050565b6000613b42602b83614469565b9150613b4d826148e9565b604082019050919050565b6000613b65603283614469565b9150613b7082614938565b604082019050919050565b6000613b88602683614469565b9150613b9382614987565b604082019050919050565b6000613bab601c83614469565b9150613bb6826149d6565b602082019050919050565b6000613bce601c83614469565b9150613bd9826149ff565b602082019050919050565b6000613bf1602883614469565b9150613bfc82614a28565b604082019050919050565b6000613c14602483614469565b9150613c1f82614a77565b604082019050919050565b6000613c37601983614469565b9150613c4282614ac6565b602082019050919050565b6000613c5a602c83614469565b9150613c6582614aef565b604082019050919050565b6000613c7d601083614469565b9150613c8882614b3e565b602082019050919050565b6000613ca0603883614469565b9150613cab82614b67565b604082019050919050565b6000613cc3602a83614469565b9150613cce82614bb6565b604082019050919050565b6000613ce6602983614469565b9150613cf182614c05565b604082019050919050565b6000613d09602083614469565b9150613d1482614c54565b602082019050919050565b6000613d2c602c83614469565b9150613d3782614c7d565b604082019050919050565b6000613d4f60058361447a565b9150613d5a82614ccc565b600582019050919050565b6000613d72602083614469565b9150613d7d82614cf5565b602082019050919050565b6000613d95602983614469565b9150613da082614d1e565b604082019050919050565b6000613db8600c83614469565b9150613dc382614d6d565b602082019050919050565b6000613ddb602283614469565b9150613de682614d96565b604082019050919050565b6000613dfe602183614469565b9150613e0982614de5565b604082019050919050565b6000613e21602c83614469565b9150613e2c82614e34565b604082019050919050565b6000613e44603183614469565b9150613e4f82614e83565b604082019050919050565b6000613e67602c83614469565b9150613e7282614ed2565b604082019050919050565b6000613e8a601383614469565b9150613e9582614f21565b602082019050919050565b6000613ead601f83614469565b9150613eb882614f4a565b602082019050919050565b6000613ed0603083614469565b9150613edb82614f73565b604082019050919050565b613eef81614604565b82525050565b6000613f018285613abe565b9150613f0d8284613abe565b9150613f1882613d42565b91508190509392505050565b6000602082019050613f396000830184613a2e565b92915050565b6000608082019050613f546000830187613a2e565b613f616020830186613a2e565b613f6e6040830185613ee6565b8181036060830152613f808184613a4c565b905095945050505050565b6000602082019050613fa06000830184613a3d565b92915050565b60006020820190508181036000830152613fc08184613a85565b905092915050565b60006020820190508181036000830152613fe181613aef565b9050919050565b6000602082019050818103600083015261400181613b12565b9050919050565b6000602082019050818103600083015261402181613b35565b9050919050565b6000602082019050818103600083015261404181613b58565b9050919050565b6000602082019050818103600083015261406181613b7b565b9050919050565b6000602082019050818103600083015261408181613b9e565b9050919050565b600060208201905081810360008301526140a181613bc1565b9050919050565b600060208201905081810360008301526140c181613be4565b9050919050565b600060208201905081810360008301526140e181613c07565b9050919050565b6000602082019050818103600083015261410181613c2a565b9050919050565b6000602082019050818103600083015261412181613c4d565b9050919050565b6000602082019050818103600083015261414181613c70565b9050919050565b6000602082019050818103600083015261416181613c93565b9050919050565b6000602082019050818103600083015261418181613cb6565b9050919050565b600060208201905081810360008301526141a181613cd9565b9050919050565b600060208201905081810360008301526141c181613cfc565b9050919050565b600060208201905081810360008301526141e181613d1f565b9050919050565b6000602082019050818103600083015261420181613d65565b9050919050565b6000602082019050818103600083015261422181613d88565b9050919050565b6000602082019050818103600083015261424181613dab565b9050919050565b6000602082019050818103600083015261426181613dce565b9050919050565b6000602082019050818103600083015261428181613df1565b9050919050565b600060208201905081810360008301526142a181613e14565b9050919050565b600060208201905081810360008301526142c181613e37565b9050919050565b600060208201905081810360008301526142e181613e5a565b9050919050565b6000602082019050818103600083015261430181613e7d565b9050919050565b6000602082019050818103600083015261432181613ea0565b9050919050565b6000602082019050818103600083015261434181613ec3565b9050919050565b600060208201905061435d6000830184613ee6565b92915050565b600061436d61437e565b90506143798282614682565b919050565b6000604051905090565b600067ffffffffffffffff8211156143a3576143a2614818565b5b602082029050602081019050919050565b600067ffffffffffffffff8211156143cf576143ce614818565b5b602082029050602081019050919050565b600067ffffffffffffffff8211156143fb576143fa614818565b5b61440482614860565b9050602081019050919050565b600067ffffffffffffffff82111561442c5761442b614818565b5b61443582614860565b9050602081019050919050565b600081519050919050565b600081519050919050565b600082825260208201905092915050565b600082825260208201905092915050565b600081905092915050565b600061449082614604565b915061449b83614604565b9250827fffffffffffffffffffffffffffffffffffffffffffffffffffffffffffffffff038211156144d0576144cf61472d565b5b828201905092915050565b60006144e682614604565b91506144f183614604565b9250826145015761450061475c565b5b828204905092915050565b600061451782614604565b915061452283614604565b9250817fffffffffffffffffffffffffffffffffffffffffffffffffffffffffffffffff048311821515161561455b5761455a61472d565b5b828202905092915050565b600061457182614604565b915061457c83614604565b92508282101561458f5761458e61472d565b5b828203905092915050565b60006145a5826145e4565b9050919050565b60008115159050919050565b60007fffffffff0000000000000000000000000000000000000000000000000000000082169050919050565b600073ffffffffffffffffffffffffffffffffffffffff82169050919050565b6000819050919050565b82818337600083830152505050565b60005b8381101561463b578082015181840152602081019050614620565b8381111561464a576000848401525b50505050565b6000600282049050600182168061466857607f821691505b6020821081141561467c5761467b61478b565b5b50919050565b61468b82614860565b810181811067ffffffffffffffff821117156146aa576146a9614818565b5b80604052505050565b60006146be82614604565b91507fffffffffffffffffffffffffffffffffffffffffffffffffffffffffffffffff8214156146f1576146f061472d565b5b600182019050919050565b600061470782614604565b915061471283614604565b9250826147225761472161475c565b5b828206905092915050565b7f4e487b7100000000000000000000000000000000000000000000000000000000600052601160045260246000fd5b7f4e487b7100000000000000000000000000000000000000000000000000000000600052601260045260246000fd5b7f4e487b7100000000000000000000000000000000000000000000000000000000600052602260045260246000fd5b7f4e487b7100000000000000000000000000000000000000000000000000000000600052603160045260246000fd5b7f4e487b7100000000000000000000000000000000000000000000000000000000600052603260045260246000fd5b7f4e487b7100000000000000000000000000000000000000000000000000000000600052604160045260246000fd5b600080fd5b600080fd5b600080fd5b600080fd5b600080fd5b6000601f19601f8301169050919050565b7f5061757361626c653a206e6f7420706175736564000000000000000000000000600082015250565b7f57686974656c6973742063616e206d696e7420757020746f203220447761726660008201527f7320706572207472616e73616374696f6e2e0000000000000000000000000000602082015250565b7f455243373231456e756d657261626c653a206f776e657220696e646578206f7560008201527f74206f6620626f756e6473000000000000000000000000000000000000000000602082015250565b7f4552433732313a207472616e7366657220746f206e6f6e20455243373231526560008201527f63656976657220696d706c656d656e7465720000000000000000000000000000602082015250565b7f4f776e61626c653a206e6577206f776e657220697320746865207a65726f206160008201527f6464726573730000000000000000000000000000000000000000000000000000602082015250565b7f4552433732313a20746f6b656e20616c7265616479206d696e74656400000000600082015250565b7f596f75206d757374206d696e74206174206c656173742031204e465400000000600082015250565b7f596f7520646f6e2774206861766520656e6f7567682077686974656c6973742060008201527f637265646974732e000000000000000000000000000000000000000000000000602082015250565b7f4552433732313a207472616e7366657220746f20746865207a65726f2061646460008201527f7265737300000000000000000000000000000000000000000000000000000000602082015250565b7f4552433732313a20617070726f766520746f2063616c6c657200000000000000600082015250565b7f4552433732313a206f70657261746f7220717565727920666f72206e6f6e657860008201527f697374656e7420746f6b656e0000000000000000000000000000000000000000602082015250565b7f5061757361626c653a2070617573656400000000000000000000000000000000600082015250565b7f4552433732313a20617070726f76652063616c6c6572206973206e6f74206f7760008201527f6e6572206e6f7220617070726f76656420666f7220616c6c0000000000000000602082015250565b7f4552433732313a2062616c616e636520717565727920666f7220746865207a6560008201527f726f206164647265737300000000000000000000000000000000000000000000602082015250565b7f4552433732313a206f776e657220717565727920666f72206e6f6e657869737460008201527f656e7420746f6b656e0000000000000000000000000000000000000000000000602082015250565b7f4552433732313a206d696e7420746f20746865207a65726f2061646472657373600082015250565b7f4552433732313a20617070726f76656420717565727920666f72206e6f6e657860008201527f697374656e7420746f6b656e0000000000000000000000000000000000000000602082015250565b7f2e6a736f6e000000000000000000000000000000000000000000000000000000600082015250565b7f4f776e61626c653a2063616c6c6572206973206e6f7420746865206f776e6572600082015250565b7f4552433732313a207472616e73666572206f6620746f6b656e2074686174206960008201527f73206e6f74206f776e0000000000000000000000000000000000000000000000602082015250565b7f4d696e74206973206f7665720000000000000000000000000000000000000000600082015250565b7f57686974656c697374206d696e74696e6720686173206e6f742073746172746560008201527f642e000000000000000000000000000000000000000000000000000000000000602082015250565b7f4552433732313a20617070726f76616c20746f2063757272656e74206f776e6560008201527f7200000000000000000000000000000000000000000000000000000000000000602082015250565b7f596f752063616e206d696e7420757020746f203130204477617264732070657260008201527f207472616e73616374696f6e0000000000000000000000000000000000000000602082015250565b7f4552433732313a207472616e736665722063616c6c6572206973206e6f74206f60008201527f776e6572206e6f7220617070726f766564000000000000000000000000000000602082015250565b7f455243373231456e756d657261626c653a20676c6f62616c20696e646578206f60008201527f7574206f6620626f756e64730000000000000000000000000000000000000000602082015250565b7f4554482076616c756520696e636f727265637400000000000000000000000000600082015250565b7f5265656e7472616e637947756172643a207265656e7472616e742063616c6c00600082015250565b7f4552433732314275726e61626c653a2063616c6c6572206973206e6f74206f7760008201527f6e6572206e6f7220617070726f76656400000000000000000000000000000000602082015250565b614fcb8161459a565b8114614fd657600080fd5b50565b614fe2816145ac565b8114614fed57600080fd5b50565b614ff9816145b8565b811461500457600080fd5b50565b61501081614604565b811461501b57600080fd5b5056fea2646970667358221220b0eda67d929a22a50ab8e41c920cb40ad91bfdb12a5196077eebf3aa3aea0a1264736f6c63430008070033",
  "linkReferences": {},
  "deployedLinkReferences": {}
}