{
  "_format": "hh-sol-artifact-1",
  "contractName": "DegenDwarfs",
  "sourceName": "contracts/DegenDwarfs.sol",
  "abi": [
    {
      "inputs": [
        {
          "internalType": "address",
          "name": "_beneficiary",
          "type": "address"
        },
        {
          "internalType": "string",
          "name": "name",
          "type": "string"
        },
        {
          "internalType": "string",
          "name": "symbol",
          "type": "string"
        },
        {
          "internalType": "string",
          "name": "_tokenURI",
          "type": "string"
        }
      ],
      "stateMutability": "nonpayable",
      "type": "constructor"
    },
    {
      "anonymous": false,
      "inputs": [
        {
          "indexed": true,
          "internalType": "address",
          "name": "owner",
          "type": "address"
        },
        {
          "indexed": true,
          "internalType": "address",
          "name": "approved",
          "type": "address"
        },
        {
          "indexed": true,
          "internalType": "uint256",
          "name": "tokenId",
          "type": "uint256"
        }
      ],
      "name": "Approval",
      "type": "event"
    },
    {
      "anonymous": false,
      "inputs": [
        {
          "indexed": true,
          "internalType": "address",
          "name": "owner",
          "type": "address"
        },
        {
          "indexed": true,
          "internalType": "address",
          "name": "operator",
          "type": "address"
        },
        {
          "indexed": false,
          "internalType": "bool",
          "name": "approved",
          "type": "bool"
        }
      ],
      "name": "ApprovalForAll",
      "type": "event"
    },
    {
      "anonymous": false,
      "inputs": [
        {
          "indexed": true,
          "internalType": "address",
          "name": "previousOwner",
          "type": "address"
        },
        {
          "indexed": true,
          "internalType": "address",
          "name": "newOwner",
          "type": "address"
        }
      ],
      "name": "OwnershipTransferred",
      "type": "event"
    },
    {
      "anonymous": false,
      "inputs": [
        {
          "indexed": false,
          "internalType": "address",
          "name": "account",
          "type": "address"
        }
      ],
      "name": "Paused",
      "type": "event"
    },
    {
      "anonymous": false,
      "inputs": [
        {
          "indexed": true,
          "internalType": "address",
          "name": "from",
          "type": "address"
        },
        {
          "indexed": true,
          "internalType": "address",
          "name": "to",
          "type": "address"
        },
        {
          "indexed": true,
          "internalType": "uint256",
          "name": "tokenId",
          "type": "uint256"
        }
      ],
      "name": "Transfer",
      "type": "event"
    },
    {
      "anonymous": false,
      "inputs": [
        {
          "indexed": false,
          "internalType": "address",
          "name": "account",
          "type": "address"
        }
      ],
      "name": "Unpaused",
      "type": "event"
    },
    {
      "inputs": [
        {
          "internalType": "address",
          "name": "",
          "type": "address"
        }
      ],
      "name": "_discount",
      "outputs": [
        {
          "internalType": "uint256",
          "name": "",
          "type": "uint256"
        }
      ],
      "stateMutability": "view",
      "type": "function"
    },
    {
      "inputs": [],
      "name": "_tokenIds",
      "outputs": [
        {
          "internalType": "uint256",
          "name": "_value",
          "type": "uint256"
        }
      ],
      "stateMutability": "view",
      "type": "function"
    },
    {
      "inputs": [
        {
          "internalType": "address",
          "name": "",
          "type": "address"
        }
      ],
      "name": "_whitelist",
      "outputs": [
        {
          "internalType": "uint256",
          "name": "",
          "type": "uint256"
        }
      ],
      "stateMutability": "view",
      "type": "function"
    },
    {
      "inputs": [
        {
          "internalType": "address[]",
          "name": "discountees",
          "type": "address[]"
        },
        {
          "internalType": "uint256[]",
          "name": "discounted",
          "type": "uint256[]"
        }
      ],
      "name": "addDiscounts",
      "outputs": [],
      "stateMutability": "nonpayable",
      "type": "function"
    },
    {
      "inputs": [
        {
          "internalType": "address[]",
          "name": "whitelist",
          "type": "address[]"
        },
        {
          "internalType": "uint256",
          "name": "credits",
          "type": "uint256"
        }
      ],
      "name": "addWhitelist",
      "outputs": [],
      "stateMutability": "nonpayable",
      "type": "function"
    },
    {
      "inputs": [
        {
          "internalType": "address",
          "name": "to",
          "type": "address"
        },
        {
          "internalType": "uint256",
          "name": "tokenId",
          "type": "uint256"
        }
      ],
      "name": "approve",
      "outputs": [],
      "stateMutability": "nonpayable",
      "type": "function"
    },
    {
      "inputs": [
        {
          "internalType": "address",
          "name": "owner",
          "type": "address"
        }
      ],
      "name": "balanceOf",
      "outputs": [
        {
          "internalType": "uint256",
          "name": "",
          "type": "uint256"
        }
      ],
      "stateMutability": "view",
      "type": "function"
    },
    {
      "inputs": [
        {
          "internalType": "uint256",
          "name": "tokenId",
          "type": "uint256"
        }
      ],
      "name": "burn",
      "outputs": [],
      "stateMutability": "nonpayable",
      "type": "function"
    },
    {
      "inputs": [
        {
          "internalType": "uint256",
          "name": "_mintAmount",
          "type": "uint256"
        }
      ],
      "name": "claim",
      "outputs": [],
      "stateMutability": "payable",
      "type": "function"
    },
    {
      "inputs": [],
      "name": "discount",
      "outputs": [],
      "stateMutability": "payable",
      "type": "function"
    },
    {
      "inputs": [
        {
          "internalType": "uint256",
          "name": "tokenId",
          "type": "uint256"
        }
      ],
      "name": "getApproved",
      "outputs": [
        {
          "internalType": "address",
          "name": "",
          "type": "address"
        }
      ],
      "stateMutability": "view",
      "type": "function"
    },
    {
      "inputs": [
        {
          "internalType": "address",
          "name": "owner",
          "type": "address"
        },
        {
          "internalType": "address",
          "name": "operator",
          "type": "address"
        }
      ],
      "name": "isApprovedForAll",
      "outputs": [
        {
          "internalType": "bool",
          "name": "",
          "type": "bool"
        }
      ],
      "stateMutability": "view",
      "type": "function"
    },
    {
      "inputs": [],
      "name": "maxSupply",
      "outputs": [
        {
          "internalType": "uint256",
          "name": "",
          "type": "uint256"
        }
      ],
      "stateMutability": "view",
      "type": "function"
    },
    {
      "inputs": [],
      "name": "mintPrice",
      "outputs": [
        {
          "internalType": "uint256",
          "name": "",
          "type": "uint256"
        }
      ],
      "stateMutability": "view",
      "type": "function"
    },
    {
      "inputs": [],
      "name": "mintStart",
      "outputs": [
        {
          "internalType": "uint256",
          "name": "",
          "type": "uint256"
        }
      ],
      "stateMutability": "view",
      "type": "function"
    },
    {
      "inputs": [],
      "name": "name",
      "outputs": [
        {
          "internalType": "string",
          "name": "",
          "type": "string"
        }
      ],
      "stateMutability": "view",
      "type": "function"
    },
    {
      "inputs": [
        {
          "internalType": "uint256",
          "name": "newPrice",
          "type": "uint256"
        }
      ],
      "name": "overrideMintPrice",
      "outputs": [],
      "stateMutability": "nonpayable",
      "type": "function"
    },
    {
      "inputs": [],
      "name": "owner",
      "outputs": [
        {
          "internalType": "address",
          "name": "",
          "type": "address"
        }
      ],
      "stateMutability": "view",
      "type": "function"
    },
    {
      "inputs": [
        {
          "internalType": "uint256",
          "name": "tokenId",
          "type": "uint256"
        }
      ],
      "name": "ownerOf",
      "outputs": [
        {
          "internalType": "address",
          "name": "",
          "type": "address"
        }
      ],
      "stateMutability": "view",
      "type": "function"
    },
    {
      "inputs": [],
      "name": "pauseMinting",
      "outputs": [],
      "stateMutability": "nonpayable",
      "type": "function"
    },
    {
      "inputs": [],
      "name": "paused",
      "outputs": [
        {
          "internalType": "bool",
          "name": "",
          "type": "bool"
        }
      ],
      "stateMutability": "view",
      "type": "function"
    },
    {
      "inputs": [],
      "name": "renounceOwnership",
      "outputs": [],
      "stateMutability": "nonpayable",
      "type": "function"
    },
    {
      "inputs": [
        {
          "internalType": "address",
          "name": "from",
          "type": "address"
        },
        {
          "internalType": "address",
          "name": "to",
          "type": "address"
        },
        {
          "internalType": "uint256",
          "name": "tokenId",
          "type": "uint256"
        }
      ],
      "name": "safeTransferFrom",
      "outputs": [],
      "stateMutability": "nonpayable",
      "type": "function"
    },
    {
      "inputs": [
        {
          "internalType": "address",
          "name": "from",
          "type": "address"
        },
        {
          "internalType": "address",
          "name": "to",
          "type": "address"
        },
        {
          "internalType": "uint256",
          "name": "tokenId",
          "type": "uint256"
        },
        {
          "internalType": "bytes",
          "name": "_data",
          "type": "bytes"
        }
      ],
      "name": "safeTransferFrom",
      "outputs": [],
      "stateMutability": "nonpayable",
      "type": "function"
    },
    {
      "inputs": [
        {
          "internalType": "address",
          "name": "operator",
          "type": "address"
        },
        {
          "internalType": "bool",
          "name": "approved",
          "type": "bool"
        }
      ],
      "name": "setApprovalForAll",
      "outputs": [],
      "stateMutability": "nonpayable",
      "type": "function"
    },
    {
      "inputs": [
        {
          "internalType": "string",
          "name": "baseURI",
          "type": "string"
        }
      ],
      "name": "setBaseURI",
      "outputs": [],
      "stateMutability": "nonpayable",
      "type": "function"
    },
    {
      "inputs": [
        {
          "internalType": "bytes4",
          "name": "interfaceId",
          "type": "bytes4"
        }
      ],
      "name": "supportsInterface",
      "outputs": [
        {
          "internalType": "bool",
          "name": "",
          "type": "bool"
        }
      ],
      "stateMutability": "view",
      "type": "function"
    },
    {
      "inputs": [],
      "name": "symbol",
      "outputs": [
        {
          "internalType": "string",
          "name": "",
          "type": "string"
        }
      ],
      "stateMutability": "view",
      "type": "function"
    },
    {
      "inputs": [
        {
          "internalType": "uint256",
          "name": "index",
          "type": "uint256"
        }
      ],
      "name": "tokenByIndex",
      "outputs": [
        {
          "internalType": "uint256",
          "name": "",
          "type": "uint256"
        }
      ],
      "stateMutability": "view",
      "type": "function"
    },
    {
      "inputs": [
        {
          "internalType": "address",
          "name": "owner",
          "type": "address"
        },
        {
          "internalType": "uint256",
          "name": "index",
          "type": "uint256"
        }
      ],
      "name": "tokenOfOwnerByIndex",
      "outputs": [
        {
          "internalType": "uint256",
          "name": "",
          "type": "uint256"
        }
      ],
      "stateMutability": "view",
      "type": "function"
    },
    {
      "inputs": [
        {
          "internalType": "uint256",
          "name": "tokenId",
          "type": "uint256"
        }
      ],
      "name": "tokenURI",
      "outputs": [
        {
          "internalType": "string",
          "name": "",
          "type": "string"
        }
      ],
      "stateMutability": "view",
      "type": "function"
    },
    {
      "inputs": [],
      "name": "totalSupply",
      "outputs": [
        {
          "internalType": "uint256",
          "name": "",
          "type": "uint256"
        }
      ],
      "stateMutability": "view",
      "type": "function"
    },
    {
      "inputs": [
        {
          "internalType": "address",
          "name": "from",
          "type": "address"
        },
        {
          "internalType": "address",
          "name": "to",
          "type": "address"
        },
        {
          "internalType": "uint256",
          "name": "tokenId",
          "type": "uint256"
        }
      ],
      "name": "transferFrom",
      "outputs": [],
      "stateMutability": "nonpayable",
      "type": "function"
    },
    {
      "inputs": [
        {
          "internalType": "address",
          "name": "newOwner",
          "type": "address"
        }
      ],
      "name": "transferOwnership",
      "outputs": [],
      "stateMutability": "nonpayable",
      "type": "function"
    },
    {
      "inputs": [],
      "name": "unpauseMinting",
      "outputs": [],
      "stateMutability": "nonpayable",
      "type": "function"
    },
    {
      "inputs": [],
      "name": "whitelistStart",
      "outputs": [
        {
          "internalType": "uint256",
          "name": "",
          "type": "uint256"
        }
      ],
      "stateMutability": "view",
      "type": "function"
    },
    {
      "inputs": [],
      "name": "withdraw",
      "outputs": [],
      "stateMutability": "nonpayable",
      "type": "function"
    }
  ],
  "bytecode": "0x60c0604052611b396080908152506362360c10600f556362375d9060105566f52322698080006011553480156200003557600080fd5b50604051620056a5380380620056a583398181016040528101906200005b9190620004ab565b8282816000908051906020019062000075929190620001f9565b5080600190805190602001906200008e929190620001f9565b505050620000b1620000a56200012b60201b60201c565b6200013360201b60201c565b6000600660146101000a81548160ff0219169083151502179055506001600b819055508373ffffffffffffffffffffffffffffffffffffffff1660a08173ffffffffffffffffffffffffffffffffffffffff1681525050806012908051906020019062000120929190620001f9565b5050505050620005df565b600033905090565b6000600660009054906101000a900473ffffffffffffffffffffffffffffffffffffffff16905081600660006101000a81548173ffffffffffffffffffffffffffffffffffffffff021916908373ffffffffffffffffffffffffffffffffffffffff1602179055508173ffffffffffffffffffffffffffffffffffffffff168173ffffffffffffffffffffffffffffffffffffffff167f8be0079c531659141344cd1fd0a4f28419497f9722a3daafe3b4186f6b6457e060405160405180910390a35050565b8280546200020790620005a9565b90600052602060002090601f0160209004810192826200022b576000855562000277565b82601f106200024657805160ff191683800117855562000277565b8280016001018555821562000277579182015b828111156200027657825182559160200191906001019062000259565b5b5090506200028691906200028a565b5090565b5b80821115620002a55760008160009055506001016200028b565b5090565b6000604051905090565b600080fd5b600080fd5b600073ffffffffffffffffffffffffffffffffffffffff82169050919050565b6000620002ea82620002bd565b9050919050565b620002fc81620002dd565b81146200030857600080fd5b50565b6000815190506200031c81620002f1565b92915050565b600080fd5b600080fd5b6000601f19601f8301169050919050565b7f4e487b7100000000000000000000000000000000000000000000000000000000600052604160045260246000fd5b62000377826200032c565b810181811067ffffffffffffffff821117156200039957620003986200033d565b5b80604052505050565b6000620003ae620002a9565b9050620003bc82826200036c565b919050565b600067ffffffffffffffff821115620003df57620003de6200033d565b5b620003ea826200032c565b9050602081019050919050565b60005b8381101562000417578082015181840152602081019050620003fa565b8381111562000427576000848401525b50505050565b6000620004446200043e84620003c1565b620003a2565b90508281526020810184848401111562000463576200046262000327565b5b62000470848285620003f7565b509392505050565b600082601f83011262000490576200048f62000322565b5b8151620004a28482602086016200042d565b91505092915050565b60008060008060808587031215620004c857620004c7620002b3565b5b6000620004d8878288016200030b565b945050602085015167ffffffffffffffff811115620004fc57620004fb620002b8565b5b6200050a8782880162000478565b935050604085015167ffffffffffffffff8111156200052e576200052d620002b8565b5b6200053c8782880162000478565b925050606085015167ffffffffffffffff81111562000560576200055f620002b8565b5b6200056e8782880162000478565b91505092959194509250565b7f4e487b7100000000000000000000000000000000000000000000000000000000600052602260045260246000fd5b60006002820490506001821680620005c257607f821691505b60208210811415620005d957620005d86200057a565b5b50919050565b60805160a051615092620006136000396000611164015260008181610e4d015281816117550152611bb001526150926000f3fe60806040526004361061021a5760003560e01c80636817c76c11610123578063aaf1fce0116100ab578063d5abeb011161006f578063d5abeb01146107a3578063d92559ad146107ce578063da8fbf2a146107f7578063e985e9c51461080e578063f2fde38b1461084b5761021a565b8063aaf1fce0146106ac578063ae200322146106e9578063b88d4fde14610700578063c87b56dd14610729578063cfdb63ac146107665761021a565b80638da5cb5b116100f25780638da5cb5b146105d757806395d89b4114610602578063994d39691461062d578063a22cb46514610658578063aa46a400146106815761021a565b80636817c76c1461054e5780636b6f4a9d1461057957806370a0823114610583578063715018a6146105c05761021a565b8063379607f5116101a65780634f6ccce7116101755780634f6ccce71461045757806355f804b3146104945780635c975abb146104bd5780636352211e146104e8578063645b6701146105255761021a565b8063379607f5146103d25780633ccfd60b146103ee57806342842e0e1461040557806342966c681461042e5761021a565b806318160ddd116101ed57806318160ddd146102ed57806323b872dd14610318578063255e4685146103415780632f1cc6ac1461036c5780632f745c59146103955761021a565b806301ffc9a71461021f57806306fdde031461025c578063081812fc14610287578063095ea7b3146102c4575b600080fd5b34801561022b57600080fd5b50610246600480360381019061024191906134fa565b610874565b6040516102539190613542565b60405180910390f35b34801561026857600080fd5b50610271610956565b60405161027e91906135f6565b60405180910390f35b34801561029357600080fd5b506102ae60048036038101906102a9919061364e565b6109e8565b6040516102bb91906136bc565b60405180910390f35b3480156102d057600080fd5b506102eb60048036038101906102e69190613703565b610a6d565b005b3480156102f957600080fd5b50610302610b85565b60405161030f9190613752565b60405180910390f35b34801561032457600080fd5b5061033f600480360381019061033a919061376d565b610b92565b005b34801561034d57600080fd5b50610356610bf2565b6040516103639190613752565b60405180910390f35b34801561037857600080fd5b50610393600480360381019061038e91906139cb565b610bf8565b005b3480156103a157600080fd5b506103bc60048036038101906103b79190613703565b610d10565b6040516103c99190613752565b60405180910390f35b6103ec60048036038101906103e7919061364e565b610db5565b005b3480156103fa57600080fd5b506104036111e1565b005b34801561041157600080fd5b5061042c6004803603810190610427919061376d565b6112ad565b005b34801561043a57600080fd5b506104556004803603810190610450919061364e565b6112cd565b005b34801561046357600080fd5b5061047e6004803603810190610479919061364e565b611329565b60405161048b9190613752565b60405180910390f35b3480156104a057600080fd5b506104bb60048036038101906104b69190613af8565b61139a565b005b3480156104c957600080fd5b506104d2611430565b6040516104df9190613542565b60405180910390f35b3480156104f457600080fd5b5061050f600480360381019061050a919061364e565b611447565b60405161051c91906136bc565b60405180910390f35b34801561053157600080fd5b5061054c60048036038101906105479190613b41565b6114f9565b005b34801561055a57600080fd5b506105636115f7565b6040516105709190613752565b60405180910390f35b6105816115fd565b005b34801561058f57600080fd5b506105aa60048036038101906105a59190613b9d565b611838565b6040516105b79190613752565b60405180910390f35b3480156105cc57600080fd5b506105d56118f0565b005b3480156105e357600080fd5b506105ec611978565b6040516105f991906136bc565b60405180910390f35b34801561060e57600080fd5b506106176119a2565b60405161062491906135f6565b60405180910390f35b34801561063957600080fd5b50610642611a34565b60405161064f9190613752565b60405180910390f35b34801561066457600080fd5b5061067f600480360381019061067a9190613bf6565b611a3a565b005b34801561068d57600080fd5b50610696611a50565b6040516106a39190613752565b60405180910390f35b3480156106b857600080fd5b506106d360048036038101906106ce9190613b9d565b611a5c565b6040516106e09190613752565b60405180910390f35b3480156106f557600080fd5b506106fe611a74565b005b34801561070c57600080fd5b5061072760048036038101906107229190613cd7565b611afa565b005b34801561073557600080fd5b50610750600480360381019061074b919061364e565b611b5c565b60405161075d91906135f6565b60405180910390f35b34801561077257600080fd5b5061078d60048036038101906107889190613b9d565b611b96565b60405161079a9190613752565b60405180910390f35b3480156107af57600080fd5b506107b8611bae565b6040516107c59190613752565b60405180910390f35b3480156107da57600080fd5b506107f560048036038101906107f0919061364e565b611bd2565b005b34801561080357600080fd5b5061080c611c58565b005b34801561081a57600080fd5b5061083560048036038101906108309190613d5a565b611cde565b6040516108429190613542565b60405180910390f35b34801561085757600080fd5b50610872600480360381019061086d9190613b9d565b611d72565b005b60007f80ac58cd000000000000000000000000000000000000000000000000000000007bffffffffffffffffffffffffffffffffffffffffffffffffffffffff1916827bffffffffffffffffffffffffffffffffffffffffffffffffffffffff1916148061093f57507f5b5e139f000000000000000000000000000000000000000000000000000000007bffffffffffffffffffffffffffffffffffffffffffffffffffffffff1916827bffffffffffffffffffffffffffffffffffffffffffffffffffffffff1916145b8061094f575061094e82611e6a565b5b9050919050565b60606000805461096590613dc9565b80601f016020809104026020016040519081016040528092919081815260200182805461099190613dc9565b80156109de5780601f106109b3576101008083540402835291602001916109de565b820191906000526020600020905b8154815290600101906020018083116109c157829003601f168201915b5050505050905090565b60006109f382611ee4565b610a32576040517f08c379a0000000000000000000000000000000000000000000000000000000008152600401610a2990613e6d565b60405180910390fd5b6004600083815260200190815260200160002060009054906101000a900473ffffffffffffffffffffffffffffffffffffffff169050919050565b6000610a7882611447565b90508073ffffffffffffffffffffffffffffffffffffffff168373ffffffffffffffffffffffffffffffffffffffff161415610ae9576040517f08c379a0000000000000000000000000000000000000000000000000000000008152600401610ae090613eff565b60405180910390fd5b8073ffffffffffffffffffffffffffffffffffffffff16610b08611f50565b73ffffffffffffffffffffffffffffffffffffffff161480610b375750610b3681610b31611f50565b611cde565b5b610b76576040517f08c379a0000000000000000000000000000000000000000000000000000000008152600401610b6d90613f91565b60405180910390fd5b610b808383611f58565b505050565b6000600980549050905090565b610ba3610b9d611f50565b82612011565b610be2576040517f08c379a0000000000000000000000000000000000000000000000000000000008152600401610bd990614023565b60405180910390fd5b610bed8383836120ef565b505050565b60105481565b610c00611f50565b73ffffffffffffffffffffffffffffffffffffffff16610c1e611978565b73ffffffffffffffffffffffffffffffffffffffff1614610c74576040517f08c379a0000000000000000000000000000000000000000000000000000000008152600401610c6b9061408f565b60405180910390fd5b60005b8251811015610d0b57818181518110610c9357610c926140af565b5b6020026020010151600d6000858481518110610cb257610cb16140af565b5b602002602001015173ffffffffffffffffffffffffffffffffffffffff1673ffffffffffffffffffffffffffffffffffffffff168152602001908152602001600020819055508080610d039061410d565b915050610c77565b505050565b6000610d1b83611838565b8210610d5c576040517f08c379a0000000000000000000000000000000000000000000000000000000008152600401610d53906141c8565b60405180910390fd5b600760008473ffffffffffffffffffffffffffffffffffffffff1673ffffffffffffffffffffffffffffffffffffffff168152602001908152602001600020600083815260200190815260200160002054905092915050565b610dbd611430565b15610dfd576040517f08c379a0000000000000000000000000000000000000000000000000000000008152600401610df490614234565b60405180910390fd5b6002600b541415610e43576040517f08c379a0000000000000000000000000000000000000000000000000000000008152600401610e3a906142a0565b60405180910390fd5b6002600b819055507f0000000000000000000000000000000000000000000000000000000000000000610e76600c612356565b1115610eb7576040517f08c379a0000000000000000000000000000000000000000000000000000000008152600401610eae9061430c565b60405180910390fd5b6001811015610efb576040517f08c379a0000000000000000000000000000000000000000000000000000000008152600401610ef290614378565b60405180910390fd5b80601154610f099190614398565b3414610f4a576040517f08c379a0000000000000000000000000000000000000000000000000000000008152600401610f419061443e565b60405180910390fd5b42600f54108015610f5c575042601054115b156110905780600e6000610f6e611f50565b73ffffffffffffffffffffffffffffffffffffffff1673ffffffffffffffffffffffffffffffffffffffff168152602001908152602001600020541015610fea576040517f08c379a0000000000000000000000000000000000000000000000000000000008152600401610fe1906144d0565b60405180910390fd5b600a81111561102e576040517f08c379a000000000000000000000000000000000000000000000000000000000815260040161102590614562565b60405180910390fd5b80600e600061103b611f50565b73ffffffffffffffffffffffffffffffffffffffff1673ffffffffffffffffffffffffffffffffffffffff16815260200190815260200160002060008282546110849190614582565b9250508190555061111f565b4260105410156110e357600f8111156110de576040517f08c379a00000000000000000000000000000000000000000000000000000000081526004016110d590614628565b60405180910390fd5b61111e565b6040517f08c379a0000000000000000000000000000000000000000000000000000000008152600401611115906146ba565b60405180910390fd5b5b60005b8181101561116157611134600c612364565b61114e61113f611f50565b611149600c612356565b61237a565b80806111599061410d565b915050611122565b507f000000000000000000000000000000000000000000000000000000000000000073ffffffffffffffffffffffffffffffffffffffff166108fc826011546111aa9190614398565b9081150290604051600060405180830381858888f193505050501580156111d5573d6000803e3d6000fd5b506001600b8190555050565b6111e9611f50565b73ffffffffffffffffffffffffffffffffffffffff16611207611978565b73ffffffffffffffffffffffffffffffffffffffff161461125d576040517f08c379a00000000000000000000000000000000000000000000000000000000081526004016112549061408f565b60405180910390fd5b611265611f50565b73ffffffffffffffffffffffffffffffffffffffff166108fc479081150290604051600060405180830381858888f193505050501580156112aa573d6000803e3d6000fd5b50565b6112c883838360405180602001604052806000815250611afa565b505050565b6112de6112d8611f50565b82612011565b61131d576040517f08c379a00000000000000000000000000000000000000000000000000000000081526004016113149061474c565b60405180910390fd5b61132681612398565b50565b6000611333610b85565b8210611374576040517f08c379a000000000000000000000000000000000000000000000000000000000815260040161136b906147de565b60405180910390fd5b60098281548110611388576113876140af565b5b90600052602060002001549050919050565b6113a2611f50565b73ffffffffffffffffffffffffffffffffffffffff166113c0611978565b73ffffffffffffffffffffffffffffffffffffffff1614611416576040517f08c379a000000000000000000000000000000000000000000000000000000000815260040161140d9061408f565b60405180910390fd5b806012908051906020019061142c9291906133eb565b5050565b6000600660149054906101000a900460ff16905090565b6000806002600084815260200190815260200160002060009054906101000a900473ffffffffffffffffffffffffffffffffffffffff169050600073ffffffffffffffffffffffffffffffffffffffff168173ffffffffffffffffffffffffffffffffffffffff1614156114f0576040517f08c379a00000000000000000000000000000000000000000000000000000000081526004016114e790614870565b60405180910390fd5b80915050919050565b611501611f50565b73ffffffffffffffffffffffffffffffffffffffff1661151f611978565b73ffffffffffffffffffffffffffffffffffffffff1614611575576040517f08c379a000000000000000000000000000000000000000000000000000000000815260040161156c9061408f565b60405180910390fd5b60005b82518110156115f25781600e6000858481518110611599576115986140af565b5b602002602001015173ffffffffffffffffffffffffffffffffffffffff1673ffffffffffffffffffffffffffffffffffffffff1681526020019081526020016000208190555080806115ea9061410d565b915050611578565b505050565b60115481565b611605611430565b15611645576040517f08c379a000000000000000000000000000000000000000000000000000000000815260040161163c90614234565b60405180910390fd5b6002600b54141561168b576040517f08c379a0000000000000000000000000000000000000000000000000000000008152600401611682906142a0565b60405180910390fd5b6002600b819055506000670de0b6b3a7640000600d60006116aa611f50565b73ffffffffffffffffffffffffffffffffffffffff1673ffffffffffffffffffffffffffffffffffffffff16815260200190815260200160002054670de0b6b3a76400006116f89190614582565b6011546117059190614398565b61170f91906148bf565b9050803414611753576040517f08c379a000000000000000000000000000000000000000000000000000000000815260040161174a9061443e565b60405180910390fd5b7f000000000000000000000000000000000000000000000000000000000000000061177e600c612356565b11156117bf576040517f08c379a00000000000000000000000000000000000000000000000000000000081526004016117b69061430c565b60405180910390fd5b6117c9600c612364565b6117e36117d4611f50565b6117de600c612356565b61237a565b600d60006117ef611f50565b73ffffffffffffffffffffffffffffffffffffffff1673ffffffffffffffffffffffffffffffffffffffff16815260200190815260200160002060009055506001600b81905550565b60008073ffffffffffffffffffffffffffffffffffffffff168273ffffffffffffffffffffffffffffffffffffffff1614156118a9576040517f08c379a00000000000000000000000000000000000000000000000000000000081526004016118a090614962565b60405180910390fd5b600360008373ffffffffffffffffffffffffffffffffffffffff1673ffffffffffffffffffffffffffffffffffffffff168152602001908152602001600020549050919050565b6118f8611f50565b73ffffffffffffffffffffffffffffffffffffffff16611916611978565b73ffffffffffffffffffffffffffffffffffffffff161461196c576040517f08c379a00000000000000000000000000000000000000000000000000000000081526004016119639061408f565b60405180910390fd5b61197660006124b5565b565b6000600660009054906101000a900473ffffffffffffffffffffffffffffffffffffffff16905090565b6060600180546119b190613dc9565b80601f01602080910402602001604051908101604052809291908181526020018280546119dd90613dc9565b8015611a2a5780601f106119ff57610100808354040283529160200191611a2a565b820191906000526020600020905b815481529060010190602001808311611a0d57829003601f168201915b5050505050905090565b600f5481565b611a4c611a45611f50565b838361257b565b5050565b600c8060000154905081565b600d6020528060005260406000206000915090505481565b611a7c611f50565b73ffffffffffffffffffffffffffffffffffffffff16611a9a611978565b73ffffffffffffffffffffffffffffffffffffffff1614611af0576040517f08c379a0000000000000000000000000000000000000000000000000000000008152600401611ae79061408f565b60405180910390fd5b611af86126e8565b565b611b0b611b05611f50565b83612011565b611b4a576040517f08c379a0000000000000000000000000000000000000000000000000000000008152600401611b4190614023565b60405180910390fd5b611b568484848461278a565b50505050565b6060611b666127e6565b611b6f83612878565b604051602001611b80929190614a0a565b6040516020818303038152906040529050919050565b600e6020528060005260406000206000915090505481565b7f000000000000000000000000000000000000000000000000000000000000000081565b611bda611f50565b73ffffffffffffffffffffffffffffffffffffffff16611bf8611978565b73ffffffffffffffffffffffffffffffffffffffff1614611c4e576040517f08c379a0000000000000000000000000000000000000000000000000000000008152600401611c459061408f565b60405180910390fd5b8060118190555050565b611c60611f50565b73ffffffffffffffffffffffffffffffffffffffff16611c7e611978565b73ffffffffffffffffffffffffffffffffffffffff1614611cd4576040517f08c379a0000000000000000000000000000000000000000000000000000000008152600401611ccb9061408f565b60405180910390fd5b611cdc6129d9565b565b6000600560008473ffffffffffffffffffffffffffffffffffffffff1673ffffffffffffffffffffffffffffffffffffffff16815260200190815260200160002060008373ffffffffffffffffffffffffffffffffffffffff1673ffffffffffffffffffffffffffffffffffffffff16815260200190815260200160002060009054906101000a900460ff16905092915050565b611d7a611f50565b73ffffffffffffffffffffffffffffffffffffffff16611d98611978565b73ffffffffffffffffffffffffffffffffffffffff1614611dee576040517f08c379a0000000000000000000000000000000000000000000000000000000008152600401611de59061408f565b60405180910390fd5b600073ffffffffffffffffffffffffffffffffffffffff168173ffffffffffffffffffffffffffffffffffffffff161415611e5e576040517f08c379a0000000000000000000000000000000000000000000000000000000008152600401611e5590614aab565b60405180910390fd5b611e67816124b5565b50565b60007f780e9d63000000000000000000000000000000000000000000000000000000007bffffffffffffffffffffffffffffffffffffffffffffffffffffffff1916827bffffffffffffffffffffffffffffffffffffffffffffffffffffffff19161480611edd5750611edc82612a7c565b5b9050919050565b60008073ffffffffffffffffffffffffffffffffffffffff166002600084815260200190815260200160002060009054906101000a900473ffffffffffffffffffffffffffffffffffffffff1673ffffffffffffffffffffffffffffffffffffffff1614159050919050565b600033905090565b816004600083815260200190815260200160002060006101000a81548173ffffffffffffffffffffffffffffffffffffffff021916908373ffffffffffffffffffffffffffffffffffffffff160217905550808273ffffffffffffffffffffffffffffffffffffffff16611fcb83611447565b73ffffffffffffffffffffffffffffffffffffffff167f8c5be1e5ebec7d5bd14f71427d1e84f3dd0314c0f7b2291e5b200ac8c7c3b92560405160405180910390a45050565b600061201c82611ee4565b61205b576040517f08c379a000000000000000000000000000000000000000000000000000000000815260040161205290614b3d565b60405180910390fd5b600061206683611447565b90508073ffffffffffffffffffffffffffffffffffffffff168473ffffffffffffffffffffffffffffffffffffffff1614806120d557508373ffffffffffffffffffffffffffffffffffffffff166120bd846109e8565b73ffffffffffffffffffffffffffffffffffffffff16145b806120e657506120e58185611cde565b5b91505092915050565b8273ffffffffffffffffffffffffffffffffffffffff1661210f82611447565b73ffffffffffffffffffffffffffffffffffffffff1614612165576040517f08c379a000000000000000000000000000000000000000000000000000000000815260040161215c90614bcf565b60405180910390fd5b600073ffffffffffffffffffffffffffffffffffffffff168273ffffffffffffffffffffffffffffffffffffffff1614156121d5576040517f08c379a00000000000000000000000000000000000000000000000000000000081526004016121cc90614c61565b60405180910390fd5b6121e0838383612b5e565b6121eb600082611f58565b6001600360008573ffffffffffffffffffffffffffffffffffffffff1673ffffffffffffffffffffffffffffffffffffffff168152602001908152602001600020600082825461223b9190614582565b925050819055506001600360008473ffffffffffffffffffffffffffffffffffffffff1673ffffffffffffffffffffffffffffffffffffffff16815260200190815260200160002060008282546122929190614c81565b92505081905550816002600083815260200190815260200160002060006101000a81548173ffffffffffffffffffffffffffffffffffffffff021916908373ffffffffffffffffffffffffffffffffffffffff160217905550808273ffffffffffffffffffffffffffffffffffffffff168473ffffffffffffffffffffffffffffffffffffffff167fddf252ad1be2c89b69c2b068fc378daa952ba7f163c4a11628f55a4df523b3ef60405160405180910390a4612351838383612b6e565b505050565b600081600001549050919050565b6001816000016000828254019250508190555050565b612394828260405180602001604052806000815250612b73565b5050565b60006123a382611447565b90506123b181600084612b5e565b6123bc600083611f58565b6001600360008373ffffffffffffffffffffffffffffffffffffffff1673ffffffffffffffffffffffffffffffffffffffff168152602001908152602001600020600082825461240c9190614582565b925050819055506002600083815260200190815260200160002060006101000a81549073ffffffffffffffffffffffffffffffffffffffff021916905581600073ffffffffffffffffffffffffffffffffffffffff168273ffffffffffffffffffffffffffffffffffffffff167fddf252ad1be2c89b69c2b068fc378daa952ba7f163c4a11628f55a4df523b3ef60405160405180910390a46124b181600084612b6e565b5050565b6000600660009054906101000a900473ffffffffffffffffffffffffffffffffffffffff16905081600660006101000a81548173ffffffffffffffffffffffffffffffffffffffff021916908373ffffffffffffffffffffffffffffffffffffffff1602179055508173ffffffffffffffffffffffffffffffffffffffff168173ffffffffffffffffffffffffffffffffffffffff167f8be0079c531659141344cd1fd0a4f28419497f9722a3daafe3b4186f6b6457e060405160405180910390a35050565b8173ffffffffffffffffffffffffffffffffffffffff168373ffffffffffffffffffffffffffffffffffffffff1614156125ea576040517f08c379a00000000000000000000000000000000000000000000000000000000081526004016125e190614d23565b60405180910390fd5b80600560008573ffffffffffffffffffffffffffffffffffffffff1673ffffffffffffffffffffffffffffffffffffffff16815260200190815260200160002060008473ffffffffffffffffffffffffffffffffffffffff1673ffffffffffffffffffffffffffffffffffffffff16815260200190815260200160002060006101000a81548160ff0219169083151502179055508173ffffffffffffffffffffffffffffffffffffffff168373ffffffffffffffffffffffffffffffffffffffff167f17307eab39ab6107e8899845ad3d59bd9653f200f220920489ca2b5937696c31836040516126db9190613542565b60405180910390a3505050565b6126f0611430565b61272f576040517f08c379a000000000000000000000000000000000000000000000000000000000815260040161272690614d8f565b60405180910390fd5b6000600660146101000a81548160ff0219169083151502179055507f5db9ee0a495bf2e6ff9c91a7834c1ba4fdd244a5e8aa4e537bd38aeae4b073aa612773611f50565b60405161278091906136bc565b60405180910390a1565b6127958484846120ef565b6127a184848484612bce565b6127e0576040517f08c379a00000000000000000000000000000000000000000000000000000000081526004016127d790614e21565b60405180910390fd5b50505050565b6060601280546127f590613dc9565b80601f016020809104026020016040519081016040528092919081815260200182805461282190613dc9565b801561286e5780601f106128435761010080835404028352916020019161286e565b820191906000526020600020905b81548152906001019060200180831161285157829003601f168201915b5050505050905090565b606060008214156128c0576040518060400160405280600181526020017f300000000000000000000000000000000000000000000000000000000000000081525090506129d4565b600082905060005b600082146128f25780806128db9061410d565b915050600a826128eb91906148bf565b91506128c8565b60008167ffffffffffffffff81111561290e5761290d6137c5565b5b6040519080825280601f01601f1916602001820160405280156129405781602001600182028036833780820191505090505b5090505b600085146129cd576001826129599190614582565b9150600a856129689190614e41565b60306129749190614c81565b60f81b81838151811061298a576129896140af565b5b60200101907effffffffffffffffffffffffffffffffffffffffffffffffffffffffffffff1916908160001a905350600a856129c691906148bf565b9450612944565b8093505050505b919050565b6129e1611430565b15612a21576040517f08c379a0000000000000000000000000000000000000000000000000000000008152600401612a1890614234565b60405180910390fd5b6001600660146101000a81548160ff0219169083151502179055507f62e78cea01bee320cd4e420270b5ea74000d11b0c9f74754ebdbfc544b05a258612a65611f50565b604051612a7291906136bc565b60405180910390a1565b60007f80ac58cd000000000000000000000000000000000000000000000000000000007bffffffffffffffffffffffffffffffffffffffffffffffffffffffff1916827bffffffffffffffffffffffffffffffffffffffffffffffffffffffff19161480612b4757507f5b5e139f000000000000000000000000000000000000000000000000000000007bffffffffffffffffffffffffffffffffffffffffffffffffffffffff1916827bffffffffffffffffffffffffffffffffffffffffffffffffffffffff1916145b80612b575750612b5682612d65565b5b9050919050565b612b69838383612dcf565b505050565b505050565b612b7d8383612ee3565b612b8a6000848484612bce565b612bc9576040517f08c379a0000000000000000000000000000000000000000000000000000000008152600401612bc090614e21565b60405180910390fd5b505050565b6000612bef8473ffffffffffffffffffffffffffffffffffffffff166130bd565b15612d58578373ffffffffffffffffffffffffffffffffffffffff1663150b7a02612c18611f50565b8786866040518563ffffffff1660e01b8152600401612c3a9493929190614ec7565b602060405180830381600087803b158015612c5457600080fd5b505af1925050508015612c8557506040513d601f19601f82011682018060405250810190612c829190614f28565b60015b612d08573d8060008114612cb5576040519150601f19603f3d011682016040523d82523d6000602084013e612cba565b606091505b50600081511415612d00576040517f08c379a0000000000000000000000000000000000000000000000000000000008152600401612cf790614e21565b60405180910390fd5b805181602001fd5b63150b7a0260e01b7bffffffffffffffffffffffffffffffffffffffffffffffffffffffff1916817bffffffffffffffffffffffffffffffffffffffffffffffffffffffff191614915050612d5d565b600190505b949350505050565b60007f01ffc9a7000000000000000000000000000000000000000000000000000000007bffffffffffffffffffffffffffffffffffffffffffffffffffffffff1916827bffffffffffffffffffffffffffffffffffffffffffffffffffffffff1916149050919050565b612dda8383836130e0565b600073ffffffffffffffffffffffffffffffffffffffff168373ffffffffffffffffffffffffffffffffffffffff161415612e1d57612e18816130e5565b612e5c565b8173ffffffffffffffffffffffffffffffffffffffff168373ffffffffffffffffffffffffffffffffffffffff1614612e5b57612e5a838261312e565b5b5b600073ffffffffffffffffffffffffffffffffffffffff168273ffffffffffffffffffffffffffffffffffffffff161415612e9f57612e9a8161329b565b612ede565b8273ffffffffffffffffffffffffffffffffffffffff168273ffffffffffffffffffffffffffffffffffffffff1614612edd57612edc828261336c565b5b5b505050565b600073ffffffffffffffffffffffffffffffffffffffff168273ffffffffffffffffffffffffffffffffffffffff161415612f53576040517f08c379a0000000000000000000000000000000000000000000000000000000008152600401612f4a90614fa1565b60405180910390fd5b612f5c81611ee4565b15612f9c576040517f08c379a0000000000000000000000000000000000000000000000000000000008152600401612f939061500d565b60405180910390fd5b612fa860008383612b5e565b6001600360008473ffffffffffffffffffffffffffffffffffffffff1673ffffffffffffffffffffffffffffffffffffffff1681526020019081526020016000206000828254612ff89190614c81565b92505081905550816002600083815260200190815260200160002060006101000a81548173ffffffffffffffffffffffffffffffffffffffff021916908373ffffffffffffffffffffffffffffffffffffffff160217905550808273ffffffffffffffffffffffffffffffffffffffff16600073ffffffffffffffffffffffffffffffffffffffff167fddf252ad1be2c89b69c2b068fc378daa952ba7f163c4a11628f55a4df523b3ef60405160405180910390a46130b960008383612b6e565b5050565b6000808273ffffffffffffffffffffffffffffffffffffffff163b119050919050565b505050565b600980549050600a600083815260200190815260200160002081905550600981908060018154018082558091505060019003906000526020600020016000909190919091505550565b6000600161313b84611838565b6131459190614582565b905060006008600084815260200190815260200160002054905081811461322a576000600760008673ffffffffffffffffffffffffffffffffffffffff1673ffffffffffffffffffffffffffffffffffffffff168152602001908152602001600020600084815260200190815260200160002054905080600760008773ffffffffffffffffffffffffffffffffffffffff1673ffffffffffffffffffffffffffffffffffffffff168152602001908152602001600020600084815260200190815260200160002081905550816008600083815260200190815260200160002081905550505b6008600084815260200190815260200160002060009055600760008573ffffffffffffffffffffffffffffffffffffffff1673ffffffffffffffffffffffffffffffffffffffff16815260200190815260200160002060008381526020019081526020016000206000905550505050565b600060016009805490506132af9190614582565b90506000600a60008481526020019081526020016000205490506000600983815481106132df576132de6140af565b5b906000526020600020015490508060098381548110613301576133006140af565b5b906000526020600020018190555081600a600083815260200190815260200160002081905550600a60008581526020019081526020016000206000905560098054806133505761334f61502d565b5b6001900381819060005260206000200160009055905550505050565b600061337783611838565b905081600760008573ffffffffffffffffffffffffffffffffffffffff1673ffffffffffffffffffffffffffffffffffffffff168152602001908152602001600020600083815260200190815260200160002081905550806008600084815260200190815260200160002081905550505050565b8280546133f790613dc9565b90600052602060002090601f0160209004810192826134195760008555613460565b82601f1061343257805160ff1916838001178555613460565b82800160010185558215613460579182015b8281111561345f578251825591602001919060010190613444565b5b50905061346d9190613471565b5090565b5b8082111561348a576000816000905550600101613472565b5090565b6000604051905090565b600080fd5b600080fd5b60007fffffffff0000000000000000000000000000000000000000000000000000000082169050919050565b6134d7816134a2565b81146134e257600080fd5b50565b6000813590506134f4816134ce565b92915050565b6000602082840312156135105761350f613498565b5b600061351e848285016134e5565b91505092915050565b60008115159050919050565b61353c81613527565b82525050565b60006020820190506135576000830184613533565b92915050565b600081519050919050565b600082825260208201905092915050565b60005b8381101561359757808201518184015260208101905061357c565b838111156135a6576000848401525b50505050565b6000601f19601f8301169050919050565b60006135c88261355d565b6135d28185613568565b93506135e2818560208601613579565b6135eb816135ac565b840191505092915050565b6000602082019050818103600083015261361081846135bd565b905092915050565b6000819050919050565b61362b81613618565b811461363657600080fd5b50565b60008135905061364881613622565b92915050565b60006020828403121561366457613663613498565b5b600061367284828501613639565b91505092915050565b600073ffffffffffffffffffffffffffffffffffffffff82169050919050565b60006136a68261367b565b9050919050565b6136b68161369b565b82525050565b60006020820190506136d160008301846136ad565b92915050565b6136e08161369b565b81146136eb57600080fd5b50565b6000813590506136fd816136d7565b92915050565b6000806040838503121561371a57613719613498565b5b6000613728858286016136ee565b925050602061373985828601613639565b9150509250929050565b61374c81613618565b82525050565b60006020820190506137676000830184613743565b92915050565b60008060006060848603121561378657613785613498565b5b6000613794868287016136ee565b93505060206137a5868287016136ee565b92505060406137b686828701613639565b9150509250925092565b600080fd5b7f4e487b7100000000000000000000000000000000000000000000000000000000600052604160045260246000fd5b6137fd826135ac565b810181811067ffffffffffffffff8211171561381c5761381b6137c5565b5b80604052505050565b600061382f61348e565b905061383b82826137f4565b919050565b600067ffffffffffffffff82111561385b5761385a6137c5565b5b602082029050602081019050919050565b600080fd5b600061388461387f84613840565b613825565b905080838252602082019050602084028301858111156138a7576138a661386c565b5b835b818110156138d057806138bc88826136ee565b8452602084019350506020810190506138a9565b5050509392505050565b600082601f8301126138ef576138ee6137c0565b5b81356138ff848260208601613871565b91505092915050565b600067ffffffffffffffff821115613923576139226137c5565b5b602082029050602081019050919050565b600061394761394284613908565b613825565b9050808382526020820190506020840283018581111561396a5761396961386c565b5b835b81811015613993578061397f8882613639565b84526020840193505060208101905061396c565b5050509392505050565b600082601f8301126139b2576139b16137c0565b5b81356139c2848260208601613934565b91505092915050565b600080604083850312156139e2576139e1613498565b5b600083013567ffffffffffffffff811115613a00576139ff61349d565b5b613a0c858286016138da565b925050602083013567ffffffffffffffff811115613a2d57613a2c61349d565b5b613a398582860161399d565b9150509250929050565b600080fd5b600067ffffffffffffffff821115613a6357613a626137c5565b5b613a6c826135ac565b9050602081019050919050565b82818337600083830152505050565b6000613a9b613a9684613a48565b613825565b905082815260208101848484011115613ab757613ab6613a43565b5b613ac2848285613a79565b509392505050565b600082601f830112613adf57613ade6137c0565b5b8135613aef848260208601613a88565b91505092915050565b600060208284031215613b0e57613b0d613498565b5b600082013567ffffffffffffffff811115613b2c57613b2b61349d565b5b613b3884828501613aca565b91505092915050565b60008060408385031215613b5857613b57613498565b5b600083013567ffffffffffffffff811115613b7657613b7561349d565b5b613b82858286016138da565b9250506020613b9385828601613639565b9150509250929050565b600060208284031215613bb357613bb2613498565b5b6000613bc1848285016136ee565b91505092915050565b613bd381613527565b8114613bde57600080fd5b50565b600081359050613bf081613bca565b92915050565b60008060408385031215613c0d57613c0c613498565b5b6000613c1b858286016136ee565b9250506020613c2c85828601613be1565b9150509250929050565b600067ffffffffffffffff821115613c5157613c506137c5565b5b613c5a826135ac565b9050602081019050919050565b6000613c7a613c7584613c36565b613825565b905082815260208101848484011115613c9657613c95613a43565b5b613ca1848285613a79565b509392505050565b600082601f830112613cbe57613cbd6137c0565b5b8135613cce848260208601613c67565b91505092915050565b60008060008060808587031215613cf157613cf0613498565b5b6000613cff878288016136ee565b9450506020613d10878288016136ee565b9350506040613d2187828801613639565b925050606085013567ffffffffffffffff811115613d4257613d4161349d565b5b613d4e87828801613ca9565b91505092959194509250565b60008060408385031215613d7157613d70613498565b5b6000613d7f858286016136ee565b9250506020613d90858286016136ee565b9150509250929050565b7f4e487b7100000000000000000000000000000000000000000000000000000000600052602260045260246000fd5b60006002820490506001821680613de157607f821691505b60208210811415613df557613df4613d9a565b5b50919050565b7f4552433732313a20617070726f76656420717565727920666f72206e6f6e657860008201527f697374656e7420746f6b656e0000000000000000000000000000000000000000602082015250565b6000613e57602c83613568565b9150613e6282613dfb565b604082019050919050565b60006020820190508181036000830152613e8681613e4a565b9050919050565b7f4552433732313a20617070726f76616c20746f2063757272656e74206f776e6560008201527f7200000000000000000000000000000000000000000000000000000000000000602082015250565b6000613ee9602183613568565b9150613ef482613e8d565b604082019050919050565b60006020820190508181036000830152613f1881613edc565b9050919050565b7f4552433732313a20617070726f76652063616c6c6572206973206e6f74206f7760008201527f6e6572206e6f7220617070726f76656420666f7220616c6c0000000000000000602082015250565b6000613f7b603883613568565b9150613f8682613f1f565b604082019050919050565b60006020820190508181036000830152613faa81613f6e565b9050919050565b7f4552433732313a207472616e736665722063616c6c6572206973206e6f74206f60008201527f776e6572206e6f7220617070726f766564000000000000000000000000000000602082015250565b600061400d603183613568565b915061401882613fb1565b604082019050919050565b6000602082019050818103600083015261403c81614000565b9050919050565b7f4f776e61626c653a2063616c6c6572206973206e6f7420746865206f776e6572600082015250565b6000614079602083613568565b915061408482614043565b602082019050919050565b600060208201905081810360008301526140a88161406c565b9050919050565b7f4e487b7100000000000000000000000000000000000000000000000000000000600052603260045260246000fd5b7f4e487b7100000000000000000000000000000000000000000000000000000000600052601160045260246000fd5b600061411882613618565b91507fffffffffffffffffffffffffffffffffffffffffffffffffffffffffffffffff82141561414b5761414a6140de565b5b600182019050919050565b7f455243373231456e756d657261626c653a206f776e657220696e646578206f7560008201527f74206f6620626f756e6473000000000000000000000000000000000000000000602082015250565b60006141b2602b83613568565b91506141bd82614156565b604082019050919050565b600060208201905081810360008301526141e1816141a5565b9050919050565b7f5061757361626c653a2070617573656400000000000000000000000000000000600082015250565b600061421e601083613568565b9150614229826141e8565b602082019050919050565b6000602082019050818103600083015261424d81614211565b9050919050565b7f5265656e7472616e637947756172643a207265656e7472616e742063616c6c00600082015250565b600061428a601f83613568565b915061429582614254565b602082019050919050565b600060208201905081810360008301526142b98161427d565b9050919050565b7f4d696e74206973206f7665720000000000000000000000000000000000000000600082015250565b60006142f6600c83613568565b9150614301826142c0565b602082019050919050565b60006020820190508181036000830152614325816142e9565b9050919050565b7f596f75206d757374206d696e74206174206c656173742031204e465400000000600082015250565b6000614362601c83613568565b915061436d8261432c565b602082019050919050565b6000602082019050818103600083015261439181614355565b9050919050565b60006143a382613618565b91506143ae83613618565b9250817fffffffffffffffffffffffffffffffffffffffffffffffffffffffffffffffff04831182151516156143e7576143e66140de565b5b828202905092915050565b7f4554482076616c756520696e636f727265637400000000000000000000000000600082015250565b6000614428601383613568565b9150614433826143f2565b602082019050919050565b600060208201905081810360008301526144578161441b565b9050919050565b7f596f7520646f6e2774206861766520656e6f756768742077686974656c69737460008201527f20637265646974732e0000000000000000000000000000000000000000000000602082015250565b60006144ba602983613568565b91506144c58261445e565b604082019050919050565b600060208201905081810360008301526144e9816144ad565b9050919050565b7f57686974656c6973742063616e206d696e7420757020746f203520447761726660008201527f7320706572207472616e73616374696f6e2e0000000000000000000000000000602082015250565b600061454c603283613568565b9150614557826144f0565b604082019050919050565b6000602082019050818103600083015261457b8161453f565b9050919050565b600061458d82613618565b915061459883613618565b9250828210156145ab576145aa6140de565b5b828203905092915050565b7f596f752063616e206d696e7420757020746f203135204477617264732070657260008201527f207472616e73616374696f6e0000000000000000000000000000000000000000602082015250565b6000614612602c83613568565b915061461d826145b6565b604082019050919050565b6000602082019050818103600083015261464181614605565b9050919050565b7f57686974656c697374206d696e74696e6720686173206e6f742073746172746560008201527f642e000000000000000000000000000000000000000000000000000000000000602082015250565b60006146a4602283613568565b91506146af82614648565b604082019050919050565b600060208201905081810360008301526146d381614697565b9050919050565b7f4552433732314275726e61626c653a2063616c6c6572206973206e6f74206f7760008201527f6e6572206e6f7220617070726f76656400000000000000000000000000000000602082015250565b6000614736603083613568565b9150614741826146da565b604082019050919050565b6000602082019050818103600083015261476581614729565b9050919050565b7f455243373231456e756d657261626c653a20676c6f62616c20696e646578206f60008201527f7574206f6620626f756e64730000000000000000000000000000000000000000602082015250565b60006147c8602c83613568565b91506147d38261476c565b604082019050919050565b600060208201905081810360008301526147f7816147bb565b9050919050565b7f4552433732313a206f776e657220717565727920666f72206e6f6e657869737460008201527f656e7420746f6b656e0000000000000000000000000000000000000000000000602082015250565b600061485a602983613568565b9150614865826147fe565b604082019050919050565b600060208201905081810360008301526148898161484d565b9050919050565b7f4e487b7100000000000000000000000000000000000000000000000000000000600052601260045260246000fd5b60006148ca82613618565b91506148d583613618565b9250826148e5576148e4614890565b5b828204905092915050565b7f4552433732313a2062616c616e636520717565727920666f7220746865207a6560008201527f726f206164647265737300000000000000000000000000000000000000000000602082015250565b600061494c602a83613568565b9150614957826148f0565b604082019050919050565b6000602082019050818103600083015261497b8161493f565b9050919050565b600081905092915050565b60006149988261355d565b6149a28185614982565b93506149b2818560208601613579565b80840191505092915050565b7f2e6a736f6e000000000000000000000000000000000000000000000000000000600082015250565b60006149f4600583614982565b91506149ff826149be565b600582019050919050565b6000614a16828561498d565b9150614a22828461498d565b9150614a2d826149e7565b91508190509392505050565b7f4f776e61626c653a206e6577206f776e657220697320746865207a65726f206160008201527f6464726573730000000000000000000000000000000000000000000000000000602082015250565b6000614a95602683613568565b9150614aa082614a39565b604082019050919050565b60006020820190508181036000830152614ac481614a88565b9050919050565b7f4552433732313a206f70657261746f7220717565727920666f72206e6f6e657860008201527f697374656e7420746f6b656e0000000000000000000000000000000000000000602082015250565b6000614b27602c83613568565b9150614b3282614acb565b604082019050919050565b60006020820190508181036000830152614b5681614b1a565b9050919050565b7f4552433732313a207472616e736665722066726f6d20696e636f72726563742060008201527f6f776e6572000000000000000000000000000000000000000000000000000000602082015250565b6000614bb9602583613568565b9150614bc482614b5d565b604082019050919050565b60006020820190508181036000830152614be881614bac565b9050919050565b7f4552433732313a207472616e7366657220746f20746865207a65726f2061646460008201527f7265737300000000000000000000000000000000000000000000000000000000602082015250565b6000614c4b602483613568565b9150614c5682614bef565b604082019050919050565b60006020820190508181036000830152614c7a81614c3e565b9050919050565b6000614c8c82613618565b9150614c9783613618565b9250827fffffffffffffffffffffffffffffffffffffffffffffffffffffffffffffffff03821115614ccc57614ccb6140de565b5b828201905092915050565b7f4552433732313a20617070726f766520746f2063616c6c657200000000000000600082015250565b6000614d0d601983613568565b9150614d1882614cd7565b602082019050919050565b60006020820190508181036000830152614d3c81614d00565b9050919050565b7f5061757361626c653a206e6f7420706175736564000000000000000000000000600082015250565b6000614d79601483613568565b9150614d8482614d43565b602082019050919050565b60006020820190508181036000830152614da881614d6c565b9050919050565b7f4552433732313a207472616e7366657220746f206e6f6e20455243373231526560008201527f63656976657220696d706c656d656e7465720000000000000000000000000000602082015250565b6000614e0b603283613568565b9150614e1682614daf565b604082019050919050565b60006020820190508181036000830152614e3a81614dfe565b9050919050565b6000614e4c82613618565b9150614e5783613618565b925082614e6757614e66614890565b5b828206905092915050565b600081519050919050565b600082825260208201905092915050565b6000614e9982614e72565b614ea38185614e7d565b9350614eb3818560208601613579565b614ebc816135ac565b840191505092915050565b6000608082019050614edc60008301876136ad565b614ee960208301866136ad565b614ef66040830185613743565b8181036060830152614f088184614e8e565b905095945050505050565b600081519050614f22816134ce565b92915050565b600060208284031215614f3e57614f3d613498565b5b6000614f4c84828501614f13565b91505092915050565b7f4552433732313a206d696e7420746f20746865207a65726f2061646472657373600082015250565b6000614f8b602083613568565b9150614f9682614f55565b602082019050919050565b60006020820190508181036000830152614fba81614f7e565b9050919050565b7f4552433732313a20746f6b656e20616c7265616479206d696e74656400000000600082015250565b6000614ff7601c83613568565b915061500282614fc1565b602082019050919050565b6000602082019050818103600083015261502681614fea565b9050919050565b7f4e487b7100000000000000000000000000000000000000000000000000000000600052603160045260246000fdfea2646970667358221220046d755daa1781ed4fe48a75bbac7ffe15479d1bbe81b83dff2be9d027ba2d4c64736f6c63430008090033",
  "linkReferences": {},
  "deployedLinkReferences": {}
}